:03000000020006F5
:0F005F00750801750900750A0E750B0002000384
:0300030002008375
:20006E00AF8210990280FB8F992210980280FBE5998599822275840F12021B12027A120293
:20008E003A12026212029275840074D9C0E07408C0E07480C0E01202C515811581158110BB
:2000AE00980280FBAF998F82C0071200E4D0078F821201F67584007D657E001DBDFF011EC5
:2000CE00ED4E70F71201DDAF82C2FF7584008F8212015680CA22AF82C007C008C00974DED4
:2000EE00C0E07408C0E07480C0E01202C5E58124FBF581D007C3E508940DE50964809480C0
:20010E00500A0508E4B5083805098034C00774E6C0E07408C0E07480C0E01202C5158115DA
:20012E0081158175080275090074EBC0E07408C0E07480C0E01202C5158115811581D0077C
:20014E0010990280FB8F9922AF82C007C00AC00B74DEC0E07408C0E07480C0E01202C5E534
:20016E008124FBF581D007C3E50A9419E50B64809480500A050AE4B50A4D050B8049C00744
:20018E0074F2C0E07408C0E07480C0E01202C515811581158174FAC0E07408C0E07480C022
:2001AE00E01202C5158115811581750A0C750B0074F2C0E07408C0E07480C0E01202C51507
:2001CE008115811581D00710990280FB8F9922758400C2FA7E657F001EBEFF011FEE4F705E
:2001EE00F730FFFD859B8222AF82758400C2FFD2FA10FF02800280F98F9B30FFFD7E657F8F
:20020E00001EBEFF011FEE4F70F7C2FA2275840F758C677E007F011EBEFF011FEE4F70F746
:20022E00E58C30E7FB759701758A0022758400758840758920758E10758DA0858D8B758460
:20024E000075C80475C90875CDFF75CC7075CA7075CBFF22758400D2CA759850759115D228
:20026E0099D28E758401759850D2992275840F75A4757580AA75FFDE75FFADD2AF75E1060E
:13028E0075E34422758400759A4075F80D759D0BD2FF22CD
:2008D9001B5B324A001B5B25643B3148001B5B314A001B5B313B3148001B5B31323B314881
:0508F900001B5B4A003A
:06003500E478FFF6D8FD9F
:200013007900E94400601B7A00900909780175A200E493F2A308B8000205A2D9F4DAF2757D
:02003300A2FF2A
:20003B007800E84400600A790175A200E4F309D8FC7800E84400600C7900900001E4F0A3C1
:04005B00D8FCD9FAFA
:2002A100C00D85810D12006ED00D2285823185833285F033E4F52EF52FF530850C3490021D
:2002C100A1020397C00D85810DE50D24FBFF8F34E4F52EF52FF530E50D24FBF8863108868F
:0D02E100320886339002A1120397D00D223F
:2002EE00AF82C024C025C0261202FB8007C022C0238F8222158115811581052CE4B52C02C8
:20030E00052D22AF8274302FFF24C6500A74072FFF3000034307208F820202EEE582FFC4C1
:20032E00540FF582C007120311D007740F5FF58202031185820E85270F85281085291185D1
:20034E002A12AA2B751320EA2AFAE512235401FF8A064EFAE50F250FF50FE51033F510E544
:20036E001133F511E51233F512C3EA950E4008EAC3950EFA430F01D513CD850F2785102892
:20038E0085112985122A8A2B22858222858323852E24852F25853026E4F52CF52DAD31AE66
:2003AE0032AF338D828E838FF01208B9FC74012DF531E43EF5328F33ECFF700302089ABF19
:2003CE0025028003020892C201C202C203C204C205C206C207C2087535007536007CFFAA1B
:2003EE0031AB32AE338A828B838EF01208B9FFA3AA82AB838A318B328E33BF25078F821252
:20040E0002EE80998F3874D025385026E53824C64020BCFF12E53675F00AA4FD2F24D0F570
:20042E003670C2D20280BEEC75F00AA42F24D0FC80B3BF2E07BCFFAD7C0080A98F05BD6130
:20044E0000400CED248540075307DFD2008002C200BF2002806DBF2B028063BF2D028059B2
:20046E00BF42028063BF43028068BF440302063CBF4603020652BF48030203F3BF490302E1
:20048E00063CBF4A030203F3BF4C028040BF4F03020643BF50030205D1BF5302805CBF54F2
:2004AE00030203F3BF5503020648BF580302064DBF5A030203F3020656D2010203F3D2034B
:2004CE000203F3D2040203F3D2060203F3D2070203F330060CE53414FE8E348E01870780DB
:2004EE0011E53424FEFE8E348E018705098706198D078F821202EE02065FE53424FDFE8E44
:20050E00348E01870309870509870619198B278D288E298B828D838EF0C0041208A1AD82BC
:20052E00AE83D004BCFF028D0420012AC3ED95365024E536C39DF536AE368E031EEB601488
:20054E00758220C006C005C0041202EED004D005D00680E68E368C068527828528838529DE
:20056E00F01208B9FCFF602F8E041EC374808CF063F08095F050208F82C006C0051202EED7
:20058E00D005D006AA27AB28AC290ABA00010B8A278B288C2980C120010302065FC3ED952F
:2005AE0036400302065FE536C39DF536AE368E041EEC700302065D758220C0061202EED0A0
:2005CE000680EBE53424FDFC8C348C01870209870309870419198A278B288C29AC29BC800D
:2005EE000040047F438014BC600040047F50800BBC400040047F4980027F588F82C007124E
:20060E0002EE75823A1202EE7582301202EE7582781202EED007BF4902800BBF500280060C
:20062E0085288212032A85278212032A8023D20575350A801C753508801775350A80127503
:20064E003510800DD20880098F821202EE80028E3630085CE53424FCFE8E348E0187020950
:20066E0087030987040987061919198A278B288C298E2A7527FE75280875298085273985D5
:20068E00283A85293B74012539FAE4353AFCAE3B8A278C288E29853982853A83853BF0129C
:2006AE0008B9FEFF70030203AB8F821202EE80CCE53570030203AB75371930062DE534145A
:2006CE00FC8C348C01E7FA3395E0FBFCFE8A278B288C298E2A200566AA277B007C007E00A3
:2006EE008A278B288C298E2A8054300721E53424FCFE8E348E018702098703098704098727
:20070E00061919198A278B288C298E2A8030E53424FEFE8E348E01870409870619EE33957F
:20072E00E0FBFA8C278E288B298A2A200510AA27AB287C007E008A278B288C298E2A30052C
:20074E0022E52A30E71BC3E49527FAE49528FBE49529FCE4952AFE8A278B288C298E2A809F
:20076E0002C205D209A9377E00752B00853582C006C001120341D001D00620090BE52BC401
:20078E00FCE7FB4CF7198002A72B0EB209E52745284529452A70D289378E05E53670037506
:2007AE003601200224200121ED04FEAC36C3EE9C5015758220C006C005C0041202EED004AD
:2007CE00D005D0061C80E68C3630050E75822DC0051202EED00515368023ED602030030E7D
:2007EE0075822BC0051202EED0051536800F30040C758220C0051202EED0051536200122D2
:20080E00AE368E041EC3ED9C502B3002047C3080027C208C82C006C0051202EED005D00629
:20082E0080E0C3ED95365008E536C39DF536800775360080028E36A9378D068E051EED60E8
:20084E0026B20920090A09E7C4540FFD8D2B80078705740F5DF52B852B82C006C0011203C9
:20086E0011D001D00680D42001030203ABAE368E051EED70030203AB758220C0061202EE06
:13088E00D00680EB8F821202EE0203AB852C82852D8322C9
:0B08FE003C4E4F20464C4F41543E0042
:1808A100AA82AB831208B96003A380F8C3E5829AF582E5839BF58322BC
:0D00060075813B1208D5E5826003020003FE
:1C08B90020F71430F6148883A88220F507E6A88375830022E280F7E49322E0224E
:0408D5007582002206
:00000001FF
