:0400000002001132B7
:03000B00020125CA
:0E006A00E4F508F509F50AF50BC20002000ED8
:03000E0002008D60
:20007800AF8210990280FB8F992210980280FBE5998599822275840F43A80212013E120109
:200098005D1201B3758400D288758400749BC0E07408C0E07480C0E01202511581158115D4
:2000B8008174A0C0E07408C0E07480C0E0120251158115811581758400744CB50A06E4B505
:2000D8000B028002800EE4F50AF50B0508B508020509C200750E0A750F008508828509833B
:2000F800120861E5828583F045F070CD2000CAC008C00974BDC0E07408C0E07480C0E0128E
:200118000251E58124FBF581D20080AD22C0E0C0D0050AE4B50A02050B758A00758C00C2A2
:200138008DD0D0D0E032AF8475840F75FFDE75FFADD2AF75E10475E20075E34075A4017591
:2001580080068F8422AF8475840F758C677D007E011DBDFF011EED4E70F7E58C30E7FB759B
:200178009701758A0075840F75890475840075B71075840F438901758D04758F01758E09A5
:200198007D007E011DBDFF011EED4E70F7438902E58930E4FB7597028F8422AF84758400F7
:2001B800AE89740F5EF589438921758DE5438E18858D8BD28E858C8AD28C75840075985088
:0801D800759110D2998F842269
:20089B001B5B324A004D505320496E746572727570742053776974636820546573740A0A08
:2008BB000D0025642074656E746873206F662061207365636F6E6420686176652070617397
:0708DB00736564200A0D00A3
:06004000E478FFF6D8FD94
:20001E007900E94400601B7A009008ED780175A200E493F2A308B8000205A2D9F4DAF2758F
:02003E00A2FF1F
:2001E000E50E450F60467A01E50E25E0F50EE50F334012F50FE582950EE583950F40030ABC
:2002000080E6C3E50F13F50FE50E13F50EC3E582950EF5F0E583950F4005F58385F082C36C
:0D022000E50F13F50FE50E13F50EDAE122E0
:200046007800E84400600A790175A200E4F309D8FC7800E84400600C7900900001E4F0A3B6
:04006600D8FCD9FAEF
:20022D00C00D85810D120078D00D2285823185833285F033E4F52EF52FF530850C34900287
:20024D002D020323C00D85810DE50D24FBFF8F34E4F52EF52FF530E50D24FBF886310886EB
:0D026D003208863390022D120323D00D229B
:20027A00AF82C024C025C0261202878007C022C0238F8222158115811581052CE4B52C02B0
:20029A00052D22AF8274302FFF24C6500A74072FFF3001034307208F8202027AE582FFC4A9
:2002BA00540FF582C00712029DD007740F5FF58202029D85820E85270F8528108529118530
:2002DA002A12AA2B751320EA2AFAE512235401FF8A064EFAE50F250FF50FE51033F510E5B9
:2002FA001133F511E51233F512C3EA950E4008EAC3950EFA430F01D513CD850F2785102807
:20031A0085112985122A8A2B22858222858323852E24852F25853026E4F52CF52DAD31AEDA
:20033A0032AF338D828E838FF0120845FC74012DF531E43EF5328F33ECFF7003020826BF75
:20035A002502800302081EC202C203C204C205C206C207C208C2097535007536007CFFAAFB
:20037A0031AB32AE338A828B838EF0120845FFA3AA82AB838A318B328E33BF25078F82123A
:20039A00027A80998F3874D025385026E53824C64020BCFF12E53675F00AA4FD2F24D0F559
:2003BA003670C2D20380BEEC75F00AA42F24D0FC80B3BF2E07BCFFAD7C0080A98F05BD61A4
:2003DA0000400CED248540075307DFD2018002C201BF2002806DBF2B028063BF2D02805925
:2003FA00BF42028063BF43028068BF44030205C8BF46030205DEBF480302037FBF490302B4
:20041A0005C8BF4A0302037FBF4C028040BF4F030205CFBF500302055DBF5302805CBF5438
:20043A000302037FBF55030205D4BF58030205D9BF5A0302037F0205E2D20202037FD20478
:20045A0002037FD20502037FD20702037FD20802037F30070CE53414FE8E348E018707801B
:20047A0011E53424FEFE8E348E018705098706198D078F8212027A0205EBE53424FDFE8EA1
:20049A00348E01870309870509870619198B278D288E298B828D838EF0C00412082DAD82A5
:2004BA00AE83D004BCFF028D0420022AC3ED95365024E536C39DF536AE368E031EEB6014FC
:2004DA00758220C006C005C00412027AD004D005D00680E68E368C068527828528838529C7
:2004FA00F0120845FCFF602F8E041EC374808CF063F08095F050208F82C006C00512027A34
:20051A00D005D006AA27AB28AC290ABA00010B8A278B288C2980C12002030205EBC3ED9517
:20053A003640030205EBE536C39DF536AE368E041EEC70030205E9758220C00612027AD072
:20055A000680EBE53424FDFC8C348C01870209870309870419198A278B288C29AC29BC8081
:20057A000040047F438014BC600040047F50800BBC400040047F4980027F588F82C00712C2
:20059A00027A75823A12027A75823012027A75827812027AD007BF4902800BBF5002800651
:2005BA008528821202B68527821202B68023D20675350A801C753508801775350A80127561
:2005DA003510800DD20980098F8212027A80028E3630095CE53424FCFE8E348E0187020937
:2005FA0087030987040987061919198A278B288C298E2A7527E27528087529808527398566
:20061A00283A85293B74012539FAE4353AFCAE3B8A278C288E29853982853A83853BF01210
:20063A000845FEFF70030203378F8212027A80CCE535700302033775371930072DE534149D
:20065A00FC8C348C01E7FA3395E0FBFCFE8A278B288C298E2A200666AA277B007C007E0016
:20067A008A278B288C298E2A8054300821E53424FCFE8E348E01870209870309870409879A
:20069A00061919198A278B288C298E2A8030E53424FEFE8E348E01870409870619EE3395F4
:2006BA00E0FBFA8C278E288B298A2A200610AA27AB287C007E008A278B288C298E2A30069F
:2006DA0022E52A30E71BC3E49527FAE49528FBE49529FCE4952AFE8A278B288C298E2A8014
:2006FA0002C206D20AA9377E00752B00853582C006C0011202CDD001D006200A0BE52BC4E8
:20071A00FCE7FB4CF7198002A72B0EB20AE52745284529452A70D289378E05E53670037579
:20073A003601200324200221ED04FEAC36C3EE9C5015758220C006C005C00412027AD00493
:20075A00D005D0061C80E68C3630060E75822DC00512027AD00515368023ED602030040E63
:20077A0075822BC00512027AD0051536800F30050C758220C00512027AD00515362002222C
:20079A00AE368E041EC3ED9C502B3003047C3080027C208C82C006C00512027AD005D00611
:2007BA0080E0C3ED95365008E536C39DF536800775360080028E36A9378D068E051EED605D
:2007DA0026B20A200A0A09E7C4540FFD8D2B80078705740F5DF52B852B82C006C00112023D
:2007FA009DD001D00680D4200203020337AE368E051EED7003020337758220C00612027A4A
:13081A00D00680EB8F8212027A020337852C82852D832225
:0B08E2003C4E4F20464C4F41543E005E
:18082D00AA82AB831208456003A380F8C3E5829AF582E5839BF58322A4
:0D00110075813B120897E582600302000E26
:1C08450020F71430F6148883A88220F507E6A88375830022E280F7E49322E022C2
:20086100C2D5E58330E70DD2D5E4C39582F582E49583F583E50F30E70BE4C3950EF50EE4BD
:16088100950FF50F1201E030D50BE4C39582F582E49583F58322EB
:040897007582002244
:00000001FF
