:06000000020011020226BD
:03000B00020203EB
:0F006A00E4F508F509F50AF50BF50CF50DC200E4
:0300830002000E6A
:03000E0002009B52
:20008600AF8210990280FB8F992210980280FBE599859982227E007F007C007D0075840F56
:2000A60043A803C007C006C005C0041203941203B3120409758400D288758400746DC0E0D9
:2000C600740BC0E07480C0E01205591581158115817472C0E0740BC0E07480C0E01205598C
:2000E600158115811581748EC0E0740BC0E07480C0E012055915811581158175840FD2A82F
:2001060075840074B0C0E0740BC0E07480C0E0120559158115811581D004D005D006D007E1
:20012600C007C006C005C00412045FAA82AB83D004D005D006D007EAB50814EBB50910E426
:20014600F50AF50BF50CF50D0508B508020509C007C006C005C00412045F858214858315FA
:200166009000641204AAAA82AB83D004D005D006D007EAB508AAEBB509A6C007C006C00523
:20018600C004120229AA82AB83D004D005D006D007EA2CFCEB3DFD0EBE00010FC007C00608
:2001A600C005C00474B5C0E0740BC0E07480C0E0120559158115811581D004D005D006D0B3
:2001C600078E148F158C828D83C007C006C005C004120436AA82AB83C002C00374BCC0E09D
:2001E600740BC0E07480C0E0120559E58124FBF581D004D005D006D00702012622C0E0C0DA
:20020600D0C28D050AE4B50A0C050BB50B07050CB50C02050D758A00758C00D0D0D0E032BC
:20022600D20032E4FEFFF50AF50BF50CF50DF508F509F58CF58AC007C00674F3C0E0740BC3
:20024600C0E07480C0E012055915811581158174FCC0E0740BC0E07480C0E0120559158169
:2002660015811581D006D00730000302030AC37488950A7413950BE4950C7480850DF0637A
:20028600F08095F050E2746DC0E0740BC0E07480C0E0120559158115811581E4F50AF50BE8
:2002A600F50CF50DF508F509F58CF58A7472C0E0740BC0E07480C0E0120559158115811550
:2002C60081748EC0E0740BC0E07480C0E012055915811581158174F3C0E0740BC0E07480F6
:2002E600C0E01205591581158115817418C0E0740CC0E07480C0E012055915811581158114
:200306007E007F0020000302038FAE0AAF0BC007C0067432C0E0740CC0E07480C0E0120513
:2003260059158115811581D006D007C007C006C006C0077439C0E0740CC0E07480C0E012C2
:200346000559E58124FBF58174F3C0E0740BC0E07480C0E01205591581158115817461C0BD
:20036600E0740CC0E07480C0E0120559158115811581D006D007C200E4F50AF50BF50CF569
:200386000DF508F509F58CF58A8E828F8322AF8475840F75FFDE75FFADD2AF75E10475E22B
:2003A6000475E34075A4017580068F8422AF8475840F758C677D007E011DBDFF011EED4E7F
:2003C60070F7E58C30E7FB759701758A0075840F75890475840075B71075840F4389017598
:2003E6008D1B758F01758E507D007E011DBDFF011EED4E70F7438902E58930E4FB75970208
:200406008F8422AF84758400AE89740F5EF589438921758DDD438E18858D8BD28E858C8A92
:10042600D28C758400759850759110D2998F84225C
:200B6D001B5B324A004D505320496E746572727570742054696D657220546573740A0A0D97
:200B8D00005768656E20696E646963617465642070726573732074686520627574746F6E87
:200BAD000A0D001B5B306D001B5B363B314800596F7572206176657261676520726573701A
:200BCD006F6E73652074696D652069732025642074686F7573616E6473206F6620612073DD
:200BED0065636F6E64001B5B31323B3132480050524553532054484520425554544F4E2076
:200C0D0020202020202020202020005448452053595354454D20484153204245454E2052F9
:200C2D0045534554001B5B353B314800596F75207265616374656420696E20256420746846
:200C4D006F7573616E6473206F662061207365636F6E640054484520425554544F4E205724
:0B0C6D004153205052455353454400B2
:200436007A10E4FBFCE58225E0F582E58333F583EB33FBEC33FCEB9514F5F0EC95154006C2
:09045600FCABF0438201DADD2267
:0A007900750E01E4F50FF510F51106
:20045F00850E14850F15851016851117904E6D75F0C674411204C7AC82AD83AEF0FF743925
:20047F002CF50E74303DF50FE43EF510E43FF511AC10AD118C82747F5DF58322AE82AF8325
:0B049F008E0E8F0F75100075110022EB
:06004000E478FFF6D8FD94
:20001E007900E94400601B7A00900C83780175A200E493F2A308B8000205A2D9F4DAF275F5
:02003E00A2FF1F
:1D04AA00E5828514F0A4C582C0F08515F0A4D0F025F0C5838514F0A42583F58322F0
:2004C700AAF0FBE5828514F0A4FCADF0E5838514F0A42DFDE435F0FEE5828515F0A42DFDCE
:2004E700E5F03EFEE433FFEA8514F0A42EFEE5F03FFFE5838515F0A42EFEE5F03FFFE5823C
:200507008516F0A42EFEE5F03FFFEB8514F0A42FFFEA8515F0A42FFFE5838516F0A42FFF15
:0E052700E5828517F0A42F8EF08D838C822242
:200046007800E84400600A790175A200E4F309D8FC7800E84400600C7900900001E4F0A3B6
:04006600D8FCD9FAEF
:20053500C013858113120086D0132285823185833285F033E4F52EF52FF530851234900553
:200555003502062BC013858113E51324FBFF8F34E4F52EF52FF530E51324FBF886310886B5
:0D0575003208863390053512062BD0132274
:20058200AF82C024C025C02612058F8007C022C0238F8222158115811581052CE4B52C029A
:2005A200052D22AF8274302FFF24C6500A74072FFF3001034307208F82020582E582FFC493
:2005C200540FF582C0071205A5D007740F5FF5820205A585821485271585281685291785F7
:2005E2002A18AA2B751920EA2AFAE518235401FF8A064EFAE5152515F515E51633F516E57E
:200602001733F517E51833F518C3EA95144008EAC39514FA431501D519CD851527851628BF
:2006220085172985182A8A2B22858222858323852E24852F25853026E4F52CF52DAD31AEC3
:2006420032AF338D828E838FF0120B4DFC74012DF531E43EF5328F33ECFF7003020B2EBF54
:2006620025028003020B26C202C203C204C205C206C207C208C2097535007536007CFFAAE5
:2006820031AB32AE338A828B838EF0120B4DFFA3AA82AB838A318B328E33BF25078F821224
:2006A200058280998F3874D025385026E53824C64020BCFF12E53675F00AA4FD2F24D0F543
:2006C2003670C2D20380BEEC75F00AA42F24D0FC80B3BF2E07BCFFAD7C0080A98F05BD6199
:2006E20000400CED248540075307DFD2018002C201BF2002806DBF2B028063BF2D0280591A
:20070200BF42028063BF43028068BF44030208D0BF46030208E6BF4803020687BF49030287
:2007220008D0BF4A03020687BF4C028040BF4F030208D7BF5003020865BF5302805CBF5401
:2007420003020687BF55030208DCBF58030208E1BF5A030206870208EAD202020687D2042B
:20076200020687D205020687D207020687D20802068730070CE53414FE8E348E01870780E4
:2007820011E53424FEFE8E348E018705098706198D078F821205820208F3E53424FDFE8E80
:2007A200348E01870309870509870619198B278D288E298B828D838EF0C004120B35AD828F
:2007C200AE83D004BCFF028D0420022AC3ED95365024E536C39DF536AE368E031EEB6014F1
:2007E200758220C006C005C004120582D004D005D00680E68E368C068527828528838529B1
:20080200F0120B4DFCFF602F8E041EC374808CF063F08095F050208F82C006C00512058212
:20082200D005D006AA27AB28AC290ABA00010B8A278B288C2980C12002030208F3C3ED9501
:200842003640030208F3E536C39DF536AE368E041EEC70030208F1758220C006120582D046
:200862000680EBE53424FDFC8C348C01870209870309870419198A278B288C29AC29BC8076
:200882000040047F438014BC600040047F50800BBC400040047F4980027F588F82C00712B7
:2008A200058275823A120582758230120582758278120582D007BF4902800BBF500280061A
:2008C2008528821205BE8527821205BE8023D20675350A801C753508801775350A80127540
:2008E2003510800DD20980098F8212058280028E3630095CE53424FCFE8E348E0187020921
:2009020087030987040987061919198A278B288C298E2A75277875280C75298085273985C0
:20092200283A85293B74012539FAE4353AFCAE3B8A278C288E29853982853A83853BF01205
:200942000B4DFEFF700302063F8F8212058280CCE535700302063F75371F30072DE5341460
:20096200FC8C348C01E7FA3395E0FBFCFE8A278B288C298E2A200666AA277B007C007E000B
:200982008A278B288C298E2A8054300821E53424FCFE8E348E01870209870309870409878F
:2009A200061919198A278B288C298E2A8030E53424FEFE8E348E01870409870619EE3395E9
:2009C200E0FBFA8C278E288B298A2A200610AA27AB287C007E008A278B288C298E2A300694
:2009E20022E52A30E71BC3E49527FAE49528FBE49529FCE4952AFE8A278B288C298E2A8009
:200A020002C206D20AA9377E00752B00853582C006C0011205D5D001D006200A0BE52BC4D1
:200A2200FCE7FB4CF7198002A72B0EB20AE52745284529452A70D289378E05E5367003756E
:200A42003601200324200221ED04FEAC36C3EE9C5015758220C006C005C004120582D0047D
:200A6200D005D0061C80E68C3630060E75822DC005120582D00515368023ED602030040E4D
:200A820075822BC005120582D0051536800F30050C758220C005120582D00515362002220B
:200AA200AE368E041EC3ED9C502B3003047C3080027C208C82C006C005120582D005D006FB
:200AC20080E0C3ED95365008E536C39DF536800775360080028E36A9378D068E051EED6052
:200AE20026B20A200A0A09E7C4540FFD8D2B80078705740F5DF52B852B82C006C00112052F
:200B0200A5D001D00680D420020302063FAE368E051EED700302063F758220C00612058215
:130B2200D00680EB8F8212058202063F852C82852D832204
:0B0C78003C4E4F20464C4F41543E00C4
:180B3500AA82AB83120B4D6003A380F8C3E5829AF582E5839BF583228E
:0D00110075813B120B69E582600302000E51
:1C0B4D0020F71430F6148883A88220F507E6A88375830022E280F7E49322E022B7
:040B6900758200226F
:00000001FF
