:03000000020006F5
:03005F0002000399
:0300030002007781
:20006200AF8210990280FB8F992210980280FBE5998599822275840F1200D612013512002E
:20008200F512011D7584007584011098028007AF998F821200BF75840010980280E9AF9997
:2000A2008F821200BF7485C0E07407C0E07480C0E012017115811581158180CB22AF8275BB
:2000C200840110990280FB8F9975840010990280FB8F992275840F758C677E007F011EBE98
:2000E200FF011FEE4F70F7E58C30E7FB759701758A0022758400758840758920758E1075AE
:200102008DA0858D8B75840075C80475C90875CDFF75CC7075CA7075CBFF22758400D2CAFC
:20012200759850759115D299D28E758401759850D2992275840F75A40575800A75FFDE75AA
:0B014200FFADD2AF75E10475E344226D
:0A078500474F54204F4E450A0D0067
:06003500E478FFF6D8FD9F
:200013007900E94400601B7A0090079A780175A200E493F2A308B8000205A2D9F4DAF275EE
:02003300A2FF2A
:20003B007800E84400600A790175A200E4F309D8FC7800E84400600C7900900001E4F0A3C1
:04005B00D8FCD9FAFA
:20014D00C009858109120062D0092285823185833285F033E4F52EF52FF53085083490018F
:20016D004D020243C009858109E50924FBFF8F34E4F52EF52FF530E50924FBF8863108869D
:0D018D003208863390014D120243D0092242
:20019A00AF82C024C025C0261201A78007C022C0238F8222158115811581052CE4B52C0272
:2001BA00052D22AF8274302FFF24C6500A74072FFF3000034307208F8202019AE582FFC46C
:2001DA00540FF582C0071201BDD007740F5FF5820201BD85820A85270B85280C85290D85E3
:2001FA002A0EAA2B750F20EA2AFAE50E235401FF8A064EFAE50B250BF50BE50C33F50CE5BA
:20021A000D33F50DE50E33F50EC3EA950A4008EAC3950AFA430B01D50FCD850B27850C280F
:20023A00850D29850E2A8A2B22858222858323852E24852F25853026E4F52CF52DAD31AEC3
:20025A0032AF338D828E838FF0120765FC74012DF531E43EF5328F33ECFF7003020746BF18
:20027A002502800302073EC201C202C203C204C205C206C207C2087535007536007CFFAAC5
:20029A0031AB32AE338A828B838EF0120765FFA3AA82AB838A318B328E33BF25078F8212FC
:2002BA00019A80998F3874D025385026E53824C64020BCFF12E53675F00AA4FD2F24D0F51B
:2002DA003670C2D20280BEEC75F00AA42F24D0FC80B3BF2E07BCFFAD7C0080A98F05BD6186
:2002FA0000400CED248540075307DFD2008002C200BF2002806DBF2B028063BF2D02805908
:20031A00BF42028063BF43028068BF44030204E8BF46030204FEBF480302029FBF49030237
:20033A0004E8BF4A0302029FBF4C028040BF4F030204EFBF500302047DBF5302805CBF549D
:20035A000302029FBF55030204F4BF58030204F9BF5A0302029F020502D20102029FD203A0
:20037A0002029FD20402029FD20602029FD20702029F30060CE53414FE8E348E0187078084
:20039A0011E53424FEFE8E348E018705098706198D078F8212019A02050BE53424FDFE8E43
:2003BA00348E01870309870509870619198B278D288E298B828D838EF0C00412074DAD8267
:2003DA00AE83D004BCFF028D0420012AC3ED95365024E536C39DF536AE368E031EEB6014DE
:2003FA00758220C006C005C00412019AD004D005D00680E68E368C06852782852883852989
:20041A00F0120765FCFF602F8E041EC374808CF063F08095F050208F82C006C00512019AD6
:20043A00D005D006AA27AB28AC290ABA00010B8A278B288C2980C120010302050BC3ED95D9
:20045A0036400302050BE536C39DF536AE368E041EEC7003020509758220C00612019AD0F4
:20047A000680EBE53424FDFC8C348C01870209870309870419198A278B288C29AC29BC8062
:20049A000040047F438014BC600040047F50800BBC400040047F4980027F588F82C00712A3
:2004BA00019A75823A12019A75823012019A75827812019AD007BF4902800BBF50028006B6
:2004DA008528821201D68527821201D68023D20575350A801C753508801775350A80127505
:2004FA003510800DD20880098F8212019A80028E3630085CE53424FCFE8E348E01870209FB
:20051A0087030987040987061919198A278B288C298E2A75278F752807752980852739859A
:20053A00283A85293B74012539FAE4353AFCAE3B8A278C288E29853982853A83853BF012F1
:20055A000765FEFF70030202578F8212019A80CCE535700302025775371530062DE5341407
:20057A00FC8C348C01E7FA3395E0FBFCFE8A278B288C298E2A200566AA277B007C007E00F8
:20059A008A278B288C298E2A8054300721E53424FCFE8E348E01870209870309870409877C
:2005BA00061919198A278B288C298E2A8030E53424FEFE8E348E01870409870619EE3395D5
:2005DA00E0FBFA8C278E288B298A2A200510AA27AB287C007E008A278B288C298E2A300582
:2005FA0022E52A30E71BC3E49527FAE49528FBE49529FCE4952AFE8A278B288C298E2A80F5
:20061A0002C205D209A9377E00752B00853582C006C0011201EDD001D00620090BE52BC4AC
:20063A00FCE7FB4CF7198002A72B0EB209E52745284529452A70D289378E05E5367003755B
:20065A003601200224200121ED04FEAC36C3EE9C5015758220C006C005C00412019AD00457
:20067A00D005D0061C80E68C3630050E75822DC00512019AD00515368023ED602030030E27
:20069A0075822BC00512019AD0051536800F30040C758220C00512019AD0051536200122D1
:2006BA00AE368E041EC3ED9C502B3002047C3080027C208C82C006C00512019AD005D006D4
:2006DA0080E0C3ED95365008E536C39DF536800775360080028E36A9378D068E051EED603E
:2006FA0026B20920090A09E7C4540FFD8D2B80078705740F5DF52B852B82C006C001120121
:20071A00BDD001D00680D4200103020257AE368E051EED7003020257758220C00612019AAE
:13073A00D00680EB8F8212019A020257852C82852D8322C8
:0B078F003C4E4F20464C4F41543E00B2
:18074D00AA82AB831207656003A380F8C3E5829AF582E5839BF5832266
:0D00060075813B120781E582600302000353
:1C07650020F71430F6148883A88220F507E6A88375830022E280F7E49322E022A3
:04078100758200225B
:00000001FF
