:03000000020006F5
:03005F0002000399
:0300030002007781
:20006200AF8210990280FB8F992210980280FBE5998599822275840F1200A11200FD12009C
:20008200C01200E57584007447C0E07407C0E07480C0E012013315811581158180E922759C
:2000A200840F758C677E007F011EBEFF011FEE4F70F7E58C30E7FB759701758A00227584FC
:2000C20000758840758920758E10758DF375840075C80475C90875CDB885CDCC75CAEC7583
:2000E200CBFF22758400D2CA759850759105D299D28E758401759850D2992275840F75FFEA
:0D010200DE75FFADD2AF75E10475E3442258
:0607470048454C4C4F0038
:06003500E478FFF6D8FD9F
:200013007900E94400601B7A00900758780175A200E493F2A308B8000205A2D9F4DAF27530
:02003300A2FF2A
:20003B007800E84400600A790175A200E4F309D8FC7800E84400600C7900900001E4F0A3C1
:04005B00D8FCD9FAFA
:20010F00C009858109120062D0092285823185833285F033E4F52EF52FF5308508349001CD
:20012F000F020205C009858109E50924FBFF8F34E4F52EF52FF530E50924FBF88631088657
:0D014F003208863390010F120205D00922FC
:20015C00AF82C024C025C0261201698007C022C0238F8222158115811581052CE4B52C02EE
:20017C00052D22AF8274302FFF24C6500A74072FFF3000034307208F8202015CE582FFC4E8
:20019C00540FF582C00712017FD007740F5FF58202017F85820A85270B85280C85290D859D
:2001BC002A0EAA2B750F20EA2AFAE50E235401FF8A064EFAE50B250BF50BE50C33F50CE5F8
:2001DC000D33F50DE50E33F50EC3EA950A4008EAC3950AFA430B01D50FCD850B27850C284E
:2001FC00850D29850E2A8A2B22858222858323852E24852F25853026E4F52CF52DAD31AE02
:20021C0032AF338D828E838FF0120727FC74012DF531E43EF5328F33ECFF7003020708BFD2
:20023C0025028003020700C201C202C203C204C205C206C207C2087535007536007CFFAA41
:20025C0031AB32AE338A828B838EF0120727FFA3AA82AB838A318B328E33BF25078F821278
:20027C00015C80998F3874D025385026E53824C64020BCFF12E53675F00AA4FD2F24D0F597
:20029C003670C2D20280BEEC75F00AA42F24D0FC80B3BF2E07BCFFAD7C0080A98F05BD61C4
:2002BC0000400CED248540075307DFD2008002C200BF2002806DBF2B028063BF2D02805946
:2002DC00BF42028063BF43028068BF44030204AABF46030204C0BF4803020261BF49030230
:2002FC0004AABF4A03020261BF4C028040BF4F030204B1BF500302043FBF5302805CBF54D4
:20031C0003020261BF55030204B6BF58030204BBBF5A030202610204C4D201020261D20353
:20033C00020261D204020261D206020261D20702026130060CE53414FE8E348E01870780BA
:20035C0011E53424FEFE8E348E018705098706198D078F8212015C0204CDE53424FDFE8EFE
:20037C00348E01870309870509870619198B278D288E298B828D838EF0C00412070FAD82E3
:20039C00AE83D004BCFF028D0420012AC3ED95365024E536C39DF536AE368E031EEB60141C
:2003BC00758220C006C005C00412015CD004D005D00680E68E368C06852782852883852905
:2003DC00F0120727FCFF602F8E041EC374808CF063F08095F050208F82C006C00512015C91
:2003FC00D005D006AA27AB28AC290ABA00010B8A278B288C2980C12001030204CDC3ED9557
:20041C003640030204CDE536C39DF536AE368E041EEC70030204CB758220C00612015CD0EE
:20043C000680EBE53424FDFC8C348C01870209870309870419198A278B288C29AC29BC80A0
:20045C000040047F438014BC600040047F50800BBC400040047F4980027F588F82C00712E1
:20047C00015C75823A12015C75823012015C75827812015CD007BF4902800BBF50028006EC
:20049C008528821201988527821201988023D20575350A801C753508801775350A801275BF
:2004BC003510800DD20880098F8212015C80028E3630085CE53424FCFE8E348E0187020977
:2004DC0087030987040987061919198A278B288C298E2A75274D752807752980852739851B
:2004FC00283A85293B74012539FAE4353AFCAE3B8A278C288E29853982853A83853BF01230
:20051C000727FEFF70030202198F8212015C80CCE535700302021975371530062DE534143D
:20053C00FC8C348C01E7FA3395E0FBFCFE8A278B288C298E2A200566AA277B007C007E0036
:20055C008A278B288C298E2A8054300721E53424FCFE8E348E0187020987030987040987BA
:20057C00061919198A278B288C298E2A8030E53424FEFE8E348E01870409870619EE339513
:20059C00E0FBFA8C278E288B298A2A200510AA27AB287C007E008A278B288C298E2A3005C0
:2005BC0022E52A30E71BC3E49527FAE49528FBE49529FCE4952AFE8A278B288C298E2A8033
:2005DC0002C205D209A9377E00752B00853582C006C0011201AFD001D00620090BE52BC429
:2005FC00FCE7FB4CF7198002A72B0EB209E52745284529452A70D289378E05E5367003759A
:20061C003601200224200121ED04FEAC36C3EE9C5015758220C006C005C00412015CD004D3
:20063C00D005D0061C80E68C3630050E75822DC00512015CD00515368023ED602030030EA3
:20065C0075822BC00512015CD0051536800F30040C758220C00512015CD00515362001228B
:20067C00AE368E041EC3ED9C502B3002047C3080027C208C82C006C00512015CD005D00650
:20069C0080E0C3ED95365008E536C39DF536800775360080028E36A9378D068E051EED607C
:2006BC0026B20920090A09E7C4540FFD8D2B80078705740F5DF52B852B82C006C00112015F
:2006DC007FD001D00680D4200103020219AE368E051EED7003020219758220C00612015CE5
:1306FC00D00680EB8F8212015C020219852C82852D832283
:0B074D003C4E4F20464C4F41543E00F4
:18070F00AA82AB831207276003A380F8C3E5829AF582E5839BF58322E2
:0D00060075813B120743E582600302000391
:1C07270020F71430F6148883A88220F507E6A88375830022E280F7E49322E022E1
:040743007582002299
:00000001FF
