:03000000020006F5
:20005F00E4F508F509F50AF50BF50CF50D750EC8750F42F510F511F512F513751401F515E1
:03007F0002000379
:0300030002009761
:20008200AF8210990280FB8F992210980280FBE5998599822275840F1202BB1202FE12025B
:2000A200DA1202F012031C75840074B3C0E07411C0E07480C0E0120A8215811581158174E2
:2000C200B8C0E07411C0E07480C0E0120A821581158115817584002090FA1200E51200FE03
:2000E20080F22275BB00AFE874DF5FF5E843E810E5E830E5FB85BE8285BF8322120A03AC83
:2001020082AD83AEF0FFC007C006C005C004C004C005C006C0079082F375F019743812071A
:20012200AD85821685831785F018F519E58124FCF581C016C017C018C019C016C017C0185A
:20014200C01974C8C0E07411C0E012032CE58124F6F5818514828515831209F6A882A983ED
:20016200AAF0FBC000C001C002C003850882850983850AF0E50B1207ADA882A983AAF0FBA2
:20018200E58124FCF581D004D005D006D007C004C005C006C007888289838AF0EB1209540B
:2001A20085821A85831B85F01CF51DE58124FCF58174012514FAE43515FB8A828B83C003AC
:2001C200C0021209F6A882A983AEF0FFC000C001C006C007851A82851B83851CF0E51D1260
:2001E200109085820885830985F00AF50BE58124FCF581D002D0038A148B15C00CC00DC086
:200202000EC00F8516828517838518F0E519120924AF82E58124FCF581EF600C85160C8545
:20022200170D85180E85190FC010C011C012C0138516828517838518F0E5191208F4AF82F4
:20024200E58124FCF581EF600C851610851711851812851913C008C009C00AC00BC008C0DF
:2002620009C00AC00B74EAC0E07411C0E012032CE58124F6F581C00CC00DC00EC00FC00C82
:20028200C00DC00EC00F7410C0E07412C0E012032CE58124F6F581C010C011C012C013C06B
:2002A20010C011C012C0137436C0E07412C0E012032CE58124F6F5812275840F758C677EFF
:2002C200007F011EBEFF011FEE4F70F7E58C30E7FB759701758A002275840075C80475C9D4
:2002E2000875CDFF75CC7075CA7075CBFF22758400D2CA759850759115D2992275840F75DB
:20030200FFDE75FFAD75E10475E34075A40175800275A500759001D2AF2275840075D103D5
:0A03220075BA0075BC4075E8802232
:2011B3001B5B324A005541525420697320776F726B696E670043757272656E7420566F6C9D
:2011D300746167652069733A202564372E36202C202558200A0D005468652052756E6E6974
:2011F3006E6720417665726167652069733A202564372E36202C202558200A0D0054686571
:20121300204F766572616C6C204D696E696D756D2069733A202564372E36202C2025582047
:201233000A0D00546865204F766572616C6C204D6178696D756D2069733A202564372E36F6
:09125300202C202558200A0D0072
:20032C00C01E85811EE51E24FDF8868318868218E493A3B42577C200C201C202C203C20414
:20034C00C20579237700C206E493A324C64017240A50157005B52302D205D204FAE775F0BF
:20036C000AA42AF780E2240A2430B46C04D20080D7B46804D20180D0B473030203C4B46423
:20038C000612069E020420B4750612069E020440B4630518E6188017B478030203FFB4662E
:2003AC0003020554B42E0679247700809B600612079002033C0207AAC083C08286F0188620
:2003CC008318868218300419C205C082C0831211536007A31523E52370F412077BD083D0E2
:2003EC00821211536006A312079080F5D082D08302033C12041720010C120417300006121D
:20040C0004171204171207A202033CE6120780E618020781ED30E71CD203E9F42401F92075
:20042C000112EAF43400FA30000AEBF43400FBECF43400FC200110300008EB7024EC7021D4
:20044C00C200EA701CD201E97017200614300409E5236005152312077B7430120790020313
:20046C003CC082C0831206B8300460790A30001DEB54F0703619EB540F703019EA54F070E8
:20048C002A19EA540F702419EF54F0701E790520010BEF540F701419EE54F0700E7903EE9F
:2004AC00540F700719ED54F0700119E523A203994019F523C003C002C007C006C0051207DB
:2004CC007BD005D006D007D002D003300319C003C002C007C006C005742D120790D005D05C
:2004EC0006D007D002D00320014030002CC005C006C0078A82EBF583120780E58312078155
:20050C00E582120780E582120781D0E0F582120780E582D083D08280058D828E83EF120755
:20052C0081E583120780E58380038D82EE120781E582120780E5821207811207A2D083D0CC
:20054C00823006012202033C30040EE523D39524F52350287523008023E6547FFA1886037E
:20056C0008AE82AF839014287D07E4932BA3E4933A5003A3DDF48D248E828F83C00012064D
:20058C0080C082C083EFB47E02801940112482FDC3EA33FAEB33FBEC33FCDDF48006F4241D
:2005AC007F12087E75F01BE4F8FFFEFD9013BCE933F9EA33FAEB33FBEC33FC5017E4932DF8
:2005CC00D4FD7401933ED4FE7402933FD4FF74039338D4F8A3A3A3A3D5F0D4E47C50FBFA33
:2005EC00F9E524232354FC888312087EED29D4F528EE3AD4F527EF3BD4F526E5833CD4F50F
:20060C002592D5D083D082D000120680C000C3749E9F5005D000020354C08212087ED08257
:20062C0030D50FE92401F9E43AFAE43BFBE43CFC40E2D20612044020040CE524600812063C
:20064C00707003D524F4E5246015742E1207907800D20208E8120670120781E8B524F4D012
:20066C000002033C14C31392D52425F9E720D501C4540F22E618F9E618FC33E9339203FFA0
:20068C006003430480E618FBE618FA7900C201D20022E6F9FD18200112AA01E6F91830000A
:2006AC000AAC02AB01E6FA18E6F91822E975F06484FE740AC5F084C445F0FD30010122EA9A
:2006CC00540FF990125C932DD4FDE94410933ED4FEEAC4540FF990127C932DD4FDE944104D
:2006EC00933ED4FEE94420933400D4FF20000122EB540FF99012AC932DD4FDE94410933EED
:20070C00D4FEE94420933FD4FFE43400FAEBC4540FF99012DC932DD4FDE94410933ED4FEFD
:20072C00E94420933FD4FFE94430933AD4FAEC540FF990131C7B0012074EECC4540FF9903E
:20074C00136C932DD4FDE94410933ED4FEE94420933FD4FFE94430933AD4FAE94440933B78
:20076C00D4FB22742030050274301207901523E52370F022C4540F7003300219D202249035
:20078C00D43440D4C083C082C000F582120082D000D082D083222002FC7430020790D01E01
:0107AC00222A
:20125C0000561268248036924804601672288440000205071012151720232528303335385A
:20127C000096928884807672686460565248444000408122630445862768095091327314CF
:20129C000000000101020202030304040405050600367208448016528824609632680440AC
:2012BC000055106621763287429853086419753000061319263239455258657278859198F1
:2012DC00007652280480563208846036128864400085715743281400867157432914008676
:2012FC000004091419242934384348535863687200010203040506070809101112131415D0
:20131C000016324864809612284460769208244000724416886032057749219365381082C7
:20133C000077553310886644219977543210886500163350678300173450678401183451F5
:20135C00000000000000010101010101020202020056126824803692480460167228844007
:20137C00005409631872278136914500540963180043873074176104489135792266095326
:20139C00006836057342107947158452218958260002050810131618212426293234374025
:2013BC000000005000000025000050120000250600501203002556015012780025063900F0
:2013DC00125319005676090028880400144402000722010004610000523000002615000044
:2013FC00630700008103000091010000950000004800000024000000120000000600000038
:1A141C000300000001000000010000007DC5DDC334C2E0BE38BD86BBE4B968
:2007AD00120850BC0003020A30EF60FA30D502B2D1E583B4FF03020A46E582B4FF03020A5B
:2007CD0046258340072482400B020A302483145003020A46F582EA8DF0A4A8F0EA8EF0A424
:2007ED0028F8E435F0F9EB8DF0A428E935F0F9E433CA8FF0A429F9EA35F0FAEBF88EF0A45B
:20080D0029F9EA35F0FAE433FBEC8DF0A429F9EA35F0FAE43BFBE88FF0A42AFAEB35F0FB02
:20082D00E433CCFD8EF0A42AFAEB35F0FBE43CFCED8FF0A42BFBEC35F0FC20E7031208C136
:03084D00020A0F8D
:20085000AA82AB83A2F73392D1F5826002D2F7ACF0E58124F9F8E6FD08E6FE0886F008E60B
:0E087000A2F73392D5F5836002D2F7AFF022E3
:06003500E478FFF6D8FD9F
:20087E006040F82582500274FFF582E824F8501ECCCBCAF9E4CC24F85014CBCAF9E4CB2482
:20089E00F8500BCAF9E4CA24F8500379002224086010F8C3EC13FCEB13FBEA13FAE913F935
:0308BE00D8F1224C
:2008C1007804EC7011E58224F8500AF582E4C9CACBFCD8EF22EC7820058220E713D5820136
:1308E10022C3E933F9EA33FAEB33FBEC33FCD8EA15822244
:200013007900E94400601B7A00901441780175A200E493F2A308B8000205A2D9F4DAF2753A
:02003300A2FF2A
:2008F400FFA88118181209CBD2D133E6400730E70B7582012220E70675820022C2D1120993
:10091400ADE97003F5822230D101B3E433F58222CC
:20092400FFA88118181209CBD2D133E6400730E70B7582002220E70675820122C2D1120962
:10094400ADE97003F5822220D101B3E433F58222AC
:20003B007800E84400600A790175A200E4F309D8FC7800E84400600C7900900001E4F0A3C1
:04005B00D8FCD9FAFA
:200954001208507900E583B58202800D500312105EE583C3958212087EE5D0C465D020E116
:2009740017EA2DFAEB3EFBEC3FFC5009740112087EEC4480FC020A0FC3EA9DFAEB9EFBEC0F
:190994009FFC500FC3E499F9E49AFAE49BFBE49CFCB2D11208C1020A0F30
:2009AD007901AA82E68F82B5821318E6B5F00E18E6B5830918E68A82B58202790022B48041
:2009CD000FE5F0700AE5837006E58270027F00EFB6801518B6001018B6000B18B6000608A9
:0909ED000808760022080808221F
:0D09F600AC83AB827A007900748E02117818
:0C0A0300E4AC83AB82FAF9748E0211A5FA
:200A0F00B98003EA13B34010EA2401FAE43BFBE43CFC50047C800582BC000EBB000BBA002B
:200A2F0008E4F5F0F583F58222A2D1E582138CF092F78B838A8222E4F583F58275F080F4EB
:0F0A4F00A2D11322E4F583F58275F0C0747F22E3
:200A5E00C01E85811E120082D01E2285823885833985F03AE4F535F536F537851F3B900AC5
:200A7E005E020B54C01E85811EE51E24FBFF8F3BE4F535F536F537E51E24FBF886380886E1
:0D0A9E003908863A900A5E120B54D01E22D1
:200AAB00AF82C02BC02CC02D120AB88007C029C02A8F82221581158115810533E4B533020D
:200ACB00053422AF8274302FFF24C6500A74072FFF3007034307208F82020AABE582FFC42A
:200AEB00540FF582C007120ACED007740F5FF582020ACE858243852E44852F45853046859C
:200B0B003147AA32754820EA2AFAE547235401FF8A064EFAE5442544F544E54533F545E5C9
:200B2B004633F546E54733F547C3EA95434008EAC39543FA434401D548CD85442E85452FAD
:200B4B008546308547318A322285822985832A85352B85362C85372DE4F533F534AD38AED5
:200B6B0039AF3A8D828E838FF0121153FC74012DF538E43EF5398F3AECFF7003021057BFC9
:200B8B002502800302104FC208C209C20AC20BC20CC20DC20EC20F753C00753D007CFFAA4B
:200BAB0038AB39AE3A8A828B838EF0121153FFA3AA82AB838A388B398E3ABF25078F8212C0
:200BCB000AAB80998F3F74D0253F5026E53F24C64020BCFF12E53D75F00AA4FD2F24D0F5CB
:200BEB003D70C2D20980BEEC75F00AA42F24D0FC80B3BF2E07BCFFAD7C0080A98F05BD615E
:200C0B0000400CED248540075307DFD2078002C207BF2002806DBF2B028063BF2D028059DF
:200C2B00BF42028063BF43028068BF4403020DF9BF4603020E0FBF4803020BB0BF490302CE
:200C4B000DF9BF4A03020BB0BF4C028040BF4F03020E00BF5003020D8EBF5302805CBF541A
:200C6B0003020BB0BF5503020E05BF5803020E0ABF5A03020BB0020E13D208020BB0D20ADA
:200C8B00020BB0D20B020BB0D20D020BB0D20E020BB0300D0CE53B14FE8E3B8E01870780D8
:200CAB0011E53B24FEFE8E3B8E018705098706198D078F82120AAB020E1CE53B24FDFE8EE0
:200CCB003B8E01870309870509870619198B2E8D2F8E308B828D838EF0C004121078AD82FD
:200CEB00AE83D004BCFF028D0420082AC3ED953D5024E53DC39DF53DAE3D8E031EEB6014A1
:200D0B00758220C006C005C004120AABD004D005D00680E68E3D8C06852E82852F83853038
:200D2B00F0121153FCFF602F8E041EC374808CF063F08095F050208F82C006C005120AABAA
:200D4B00D005D006AA2EAB2FAC300ABA00010B8A2E8B2F8C3080C1200803020E1CC3ED9574
:200D6B003D4003020E1CE53DC39DF53DAE3D8E041EEC7003020E1A758220C006120AABD070
:200D8B000680EBE53B24FDFC8C3B8C01870209870309870419198A2E8B2F8C30AC30BC801E
:200DAB000040047F438014BC600040047F50800BBC400040047F4980027F588F82C0071289
:200DCB000AAB75823A120AAB758230120AAB758278120AABD007BF4902800BBF5002800634
:200DEB00852F82120AE7852E82120AE78023D20C753C0A801C753C088017753C0A8012758D
:200E0B003C10800DD20F80098F82120AAB80028E3D300F5CE53B24FCFE8E3B8E018702099C
:200E2B0087030987040987061919198A2E8B2F8C308E31752E36752F14753080852E40858D
:200E4B002F4185304274012540FAE43541FCAE428A2E8C2F8E308540828541838542F0127C
:200E6B001153FEFF7003020B688F82120AAB80CCE53C7003020B68753E4E300D2DE53B1452
:200E8B00FC8C3B8C01E7FA3395E0FBFCFE8A2E8B2F8C308E31200C66AA2E7B007C007E00AD
:200EAB008A2E8B2F8C308E318054300E21E53B24FCFE8E3B8E018702098703098704098731
:200ECB00061919198A2E8B2F8C308E318030E53B24FEFE8E3B8E01870409870619EE339591
:200EEB00E0FBFA8C2E8E2F8B308A31200C10AA2EAB2F7C007E008A2E8B2F8C308E31300C14
:200F0B0022E53130E71BC3E4952EFAE4952FFBE49530FCE49531FE8A2E8B2F8C308E31809B
:200F2B0002C20CD210A93E7E00753200853C82C006C001120AFED001D00620100BE532C447
:200F4B00FCE7FB4CF7198002A7320EB210E52E452F4530453170D2893E8E05E53D70037509
:200F6B003D01200924200821ED04FEAC3DC3EE9C5015758220C006C005C004120AABD00407
:200F8B00D005D0061C80E68C3D300C0E75822DC005120AABD005153D8023ED6020300A0ED7
:200FAB0075822BC005120AABD005153D800F300B0C758220C005120AABD005153D20082267
:200FCB00AE3D8E041EC3ED9C502B3009047C3080027C208C82C006C005120AABD005D00692
:200FEB0080E0C3ED953D5008E53DC39DF53D8007753D0080028E3DA93E8D068E051EED60FA
:20100B0026B21020100A09E7C4540FFD8D3280078705740F5DF532853282C006C001120ADA
:20102B00CED001D00680D4200803020B68AE3D8E051EED7003020B68758220C006120AAB27
:13104B00D00680EB8F82120AAB020B68853382853483226C
:0B1436003C4E4F20464C4F41543E00FE
:1A105E00E582C583F582A2D133A2D592D11392D5ECCFFCEBCEFBEACDFA221A
:18107800AA82AB831211536003A380F8C3E5829AF582E5839BF583223A
:2010900012085030D502B2D1BF0009BC0003020A53020A46BC0003020A30E583B4FF0BE50E
:2010B00082B4FF03020A53020A30E582B4FF03020A46C395835007247F400B020A302480DE
:2010D000145003020A46F582C3ED9AEE9BEF9C40111582C3EA33F9EB33FAEC33FBE433FC6C
:2010F0008005E4CCCBCAF9C08275F019C3E99DEA9EEB9FEC9400D5F002802D400EE99DF941
:20111000EA9EFAEB9FFBEC9400FCC3B3E833F8E58233F582E58333F583C3E933F9EA33FAA0
:20113000EB33FBEC33FC80C4B3E4F938FAE43582FBE43583FCD082500405827C801208C133
:03115000020A2769
:0D00060075814E1211AFE582600302000308
:1C11530020F71430F6148883A88220F507E6A88375830022E280F7E49322E022AB
:20116F00FCABF0AA83A982749EF582C2D1EC30E716D2D1E9F42401F9EAF43400FAEBF4347F
:0D118F0000FBECF43400FC1208C1020A0F52
:13119C00FCABF0AA83A982749EC2D1F5821208C1020A0F3F
:0411AF007582002223
:00000001FF
