:03000000020006F5
:20005F00E4F523F524F525F526F527F528F529F52A752BC8752C42752DFFF52EF52FF53069
:13007F00F531F532F533F534F535F536F537F5380200031D
:030003000200A751
:20009200AF8210990280FB8F992210980280FBE5998599822275840F1204AE1204F112045F
:2000B200CD1204E312050F7584007447C0E07414C0E07480C0E0120CA91581158115817435
:2000D2004CC0E07414C0E07480C0E0120CA9158115811581758400E59070F91200F61201EB
:2000F2000F80F12275BB00AFE874DF5FF5E843E810E5E830E5FB85BE8285BF8322AE82AF51
:2001120083C007C006745FC0E07414C0E07480C0E0120CA9158115811581D006D0078E8248
:200132008F83120C2AAC82AD83AEF0FFC007C006C005C004E4C0E0C0E0747AC0E07444C018
:20015200E08C828D838EF0EF1212B785823985833A85F03BF53CE58124FCF581C039C03AF5
:20017200C03BC03C90B21075F050743F1209A085823985833A85F03BF53CE58124FCF581A2
:200192007467C0E07414C0E07480C0E0120CA9158115811581C039C03AC03BC03C746EC001
:2001B200E07414C0E012051FE58124FAF581D004D005D006D0077452C0E074B8C0E07438C1
:2001D200C0E07441C0E08C828D838EF0EF1212B7AC82AD83AEF0FFE58124FCF5818C828D20
:2001F200838EF0EF120BE985823D85833EC03DC03E748CC0E07414C0E07480C0E0120CA94F
:20021200E58124FBF581748FC0E07414C0E07480C0E0120CA9158115811581C035C036C03E
:2002320037C0388523828524838525F0E5261209A0AC82AD83AEF0FFE58124FCF581C039D7
:20025200C03AC03BC03C8C828D838EF0EF120B47AC82AD83AEF0FFE58124FCF581C007C02E
:2002720006C005C004E4C0E0C0E07480C0E0743FC0E08535828536838537F0E538120B472B
:20029200A882A983AAF0FBE58124FCF581D004D005D006D007C003C002C001C000C000C089
:2002B20001C002C0038C828D838EF0EF1212B785822385832485F025F526E58124FCF58139
:2002D200852782852883120C1DAC82AD83AEF0FFC035C036C037C0388C828D838EF0EF1201
:2002F20009A085823F85834085F041F542E58124FCF581853D82853E83120C1DAC82AD83A9
:20031200AEF0FFC004C005C006C007853F828540838541F0E542120B47AC82AD83AEF0FF4E
:20033200E58124FCF581D000D001D002D003C003C002C001C000C000C001C002C0038C824F
:200352008D838EF0EF1212B7AC82AD83AEF0FFE58124FCF5818C828D838EF0EF120BE98526
:200372008227858328D000D001D002D003883589368A378B38C029C02AC02BC02C85398262
:20039200853A83853BF0E53C120B17AF82E58124FCF581EF6012853929853A2A853B2B8536
:2003B2003C2C853D2D853E2EC02FC030C031C032853982853A83853BF0E53C120AE7AF829A
:2003D200E58124FCF581EF601285392F853A30853B31853C32853D33853E34C023C024C07B
:2003F20025C0267498C0E07414C0E012051FE58124FAF581C027C02874BAC0E07414C0E017
:200412007480C0E0120CA9E58124FBF58174C0C0E07414C0E07480C0E0120CA915811581F1
:200432001581C029C02AC02BC02C74C9C0E07414C0E012051FE58124FAF581C02DC02E74E6
:200452008CC0E07414C0E07480C0E0120CA9E58124FBF58174EBC0E07414C0E07480C0E025
:20047200120CA9158115811581C02FC030C031C03274F4C0E07414C0E012051FE58124FA35
:20049200F581C033C034748CC0E07414C0E07480C0E0120CA9E58124FBF5812275840F7530
:2004B2008C677E007F011EBEFF011FEE4F70F7E58C30E7FB759701758A002275840075C8B3
:2004D2000475C90875CDFF75CC7075CA7075CBFF22758400D2CA759850759115D2992275AF
:2004F200840F75FFDE75FFAD75E10475E34075A40175800275A500759001D2AF2275840025
:0D05120075D10375BA0075BC4075E88022F4
:201447001B5B324A005541525420697320776F726B696E67200A0D002F3033335B324A0067
:201467002F3033335B480043757272656E7420566F6C746167652069733A2025372E3666AC
:201487002C203078002558002F3033335B322C31005468652052756E6E696E6720417665C7
:2014A700726167652069733A2025372E36662C203078002558200A0D002F3033335B332CE3
:2014C7003100546865204F766572616C6C204D696E696D756D2069733A2025372E36662C1A
:2014E700203078002F3033335B342C3100546865204F766572616C6C204D6178696D756D58
:0E1507002069733A2025372E36662C30780086
:20051F00C00E85810EE50E24FDF8868318868218E493A3B42577C200C201C202C203C2044F
:20053F00C20579087700C206E493A324C64017240A50157005B50802D205D204FAE775F000
:20055F000AA42AF780E2240A2430B46C04D20080D7B46804D20180D0B473030205B7B46439
:20057F0006120891020613B47506120891020633B4630518E6188017B478030205F2B46670
:20059F0003020747B42E0679097700809B600612098302052F02099DC083C08286F0188672
:2005BF008318868218300419C205C082C08312137A6007A31508E50870F412096ED083D005
:2005DF008212137A6006A312098380F5D082D08302052F12060A20010C12060A300006122B
:2005FF00060A12060A12099502052FE6120973E618020974ED30E71CD203E9F42401F920C3
:20061F000112EAF43400FA30000AEBF43400FBECF43400FC200110300008EB7024EC7021DF
:20063F00C200EA701CD201E97017200614300409E5086005150812096E7430120983020568
:20065F002FC082C0831208AB300460790A30001DEB54F0703619EB540F703019EA54F0700B
:20067F002A19EA540F702419EF54F0701E790520010BEF540F701419EE54F0700E7903EEAA
:20069F00540F700719ED54F0700119E508A203994019F508C003C002C007C006C00512091A
:2006BF006ED005D006D007D002D003300319C003C002C007C006C005742D120983D005D07F
:2006DF0006D007D002D00320014030002CC005C006C0078A82EBF583120973E58312097476
:2006FF00E582120973E582120974D0E0F582120973E582D083D08280058D828E83EF120980
:20071F0074E583120973E58380038D82EE120974E582120973E582120974120995D083D01B
:20073F00823006012202052F30040EE508D39509F50850287508008023E6547FFA18860300
:20075F0008AE82AF839016E17D07E4932BA3E4933A5003A3DDF48D098E828F83C0001208B6
:20077F0073C082C083EFB47E02801940112482FDC3EA33FAEB33FBEC33FCDDF48006F42435
:20079F007F120A7175F01BE4F8FFFEFD901675E933F9EA33FAEB33FBEC33FC5017E4932D52
:2007BF00D4FD7401933ED4FE7402933FD4FF74039338D4F8A3A3A3A3D5F0D4E47C50FBFA3E
:2007DF00F9E509232354FC8883120A71ED29D4F50DEE3AD4F50CEF3BD4F50BE5833CD4F591
:2007FF000A92D5D083D082D000120873C000C3749E9F5005D000020547C082120A71D0829F
:20081F0030D50FE92401F9E43AFAE43BFBE43CFC40E2D20612063320040CE509600812086B
:20083F00637003D509F4E5096015742E1209837800D20208E8120863120974E8B509F4D09C
:20085F000002052F14C31392D5240AF9E720D501C4540F22E618F9E618FC33E9339203FFD1
:20087F006003430480E618FBE618FA7900C201D20022E6F9FD18200112AA01E6F918300015
:20089F000AAC02AB01E6FA18E6F91822E975F06484FE740AC5F084C445F0FD30010122EAA5
:2008BF00540FF9901515932DD4FDE94410933ED4FEEAC4540FF9901535932DD4FDE94410E0
:2008DF00933ED4FEE94420933400D4FF20000122EB540FF9901565932DD4FDE94410933E3C
:2008FF00D4FEE94420933FD4FFE43400FAEBC4540FF9901595932DD4FDE94410933ED4FE4D
:20091F00E94420933FD4FFE94430933AD4FAEC540FF99015D57B00120941ECC4540FF99099
:20093F001625932DD4FDE94410933ED4FEE94420933FD4FFE94430933AD4FAE94440933BC7
:20095F00D4FB22742030050274301209831508E50870F022C4540F7003300219D202249081
:20097F00D43440D4C083C082C000F582120092D000D082D083222002FC7430020983D00E17
:01099F002235
:2015150000561268248036924804601672288440000205071012151720232528303335389E
:20153500009692888480767268646056524844400040812263044586276809509132731413
:201555000000000101020202030304040405050600367208448016528824609632680440F0
:20157500005510662176328742985308641975300006131926323945525865727885919835
:201595000076522804805632088460361288644000857157432814008671574329140086BA
:2015B500000409141924293438434853586368720001020304050607080910111213141514
:2015D50000163248648096122844607692082440007244168860320577492193653810820C
:2015F50000775533108866442199775432108865001633506783001734506784011834513A
:2016150000000000000001010101010102020202005612682480369248046016722884404B
:2016350000540963187227813691450054096318004387307417610448913579226609536A
:20165500006836057342107947158452218958260002050810131618212426293234374069
:20167500000000500000002500005012000025060050120300255601501278002506390034
:20169500125319005676090028880400144402000722010004610000523000002615000088
:2016B50063070000810300009101000095000000480000002400000012000000060000007C
:1A16D5000300000001000000010000007DC5DDC334C2E0BE38BD86BBE4B9AD
:2009A000120A43BC0003020C57EF60FA30D502B2D1E583B4FF03020C6DE582B4FF03020C1D
:2009C0006D258340072482400B020C572483145003020C6DF582EA8DF0A4A8F0EA8EF0A4B6
:2009E00028F8E435F0F9EB8DF0A428E935F0F9E433CA8FF0A429F9EA35F0FAEBF88EF0A466
:200A000029F9EA35F0FAE433FBEC8DF0A429F9EA35F0FAE43BFBE88FF0A42AFAEB35F0FB0D
:200A2000E433CCFD8EF0A42AFAEB35F0FBE43CFCED8FF0A42BFBEC35F0FC20E703120AB44C
:030A4000020C366F
:200A4300AA82AB83A2F73392D1F5826002D2F7ACF0E58124F9F8E6FD08E6FE0886F008E616
:0E0A6300A2F73392D5F5836002D2F7AFF022EE
:06003500E478FFF6D8FD9F
:200A71006040F82582500274FFF582E824F8501ECCCBCAF9E4CC24F85014CBCAF9E4CB248D
:200A9100F8500BCAF9E4CA24F8500379002224086010F8C3EC13FCEB13FBEA13FAE913F940
:030AB100D8F12257
:200AB4007804EC7011E58224F8500AF582E4C9CACBFCD8EF22EC7820058220E713D5820141
:130AD40022C3E933F9EA33FAEB33FBEC33FCD8EA1582224F
:200013007900E94400601B7A009016FA780175A200E493F2A308B8000205A2D9F4DAF2757F
:02003300A2FF2A
:200AE700FFA8811818120BBED2D133E6400730E70B7582012220E70675820022C2D1120BA7
:100B0700A0E97003F5822230D101B3E433F58222E4
:200B1700FFA8811818120BBED2D133E6400730E70B7582002220E70675820122C2D1120B76
:100B3700A0E97003F5822220D101B3E433F58222C4
:20003B007800E84400600A790175A200E4F309D8FC7800E84400600C7900900001E4F0A3C1
:04005B00D8FCD9FAFA
:200B4700120A437900E583B58202800D5003121285E583C39582120A71E5D0C465D020E10E
:200B670017EA2DFAEB3EFBEC3FFC50097401120A71EC4480FC020C36C3EA9DFAEB9EFBECFC
:190B87009FFC500FC3E499F9E49AFAE49BFBE49CFCB2D1120AB4020C361D
:200BA0007901AA82E68F82B5821318E6B5F00E18E6B5830918E68A82B58202790022B4804C
:200BC0000FE5F0700AE5837006E58270027F00EFB6801518B6001018B6000B18B6000608B4
:090BE0000808760022080808222A
:200BE9001213D6700AE582458345F0700122E430D112F4700BE5F0F47006E58330E7012239
:140C090090800022700AE5F07006E58320E70122907FFF221E
:0D0C1D00AC83AB827A007900748E02139FC5
:0C0C2A00E4AC83AB82FAF9748E0213CCA8
:200C3600B98003EA13B34010EA2401FAE43BFBE43CFC50047C800582BC000EBB000BBA0002
:200C560008E4F5F0F583F58222A2D1E582138CF092F78B838A8222E4F583F58275F080F4C2
:0F0C7600A2D11322E4F583F58275F0C0747F22BA
:200C8500C00E85810E120092D00E2285825285835385F054E4F54FF550F551850F55900C14
:200CA50085020D7BC00E85810EE50E24FBFF8F55E4F54FF550F551E50E24FBF88652088626
:0D0CC50053088654900C85120D7BD00E2232
:200CD200AF82C045C046C047120CDF8007C043C0448F8222158115811581054DE4B54D0205
:200CF200054E22AF8274302FFF24C6500A74072FFF3007034307208F82020CD2E582FFC4BE
:200D1200540FF582C007120CF5D007740F5FF582020CF5858210854811854912854A13859E
:200D32004B14AA4C751520EA2AFAE514235401FF8A064EFAE5112511F511E51233F512E504
:200D52001333F513E51433F514C3EA95104008EAC39510FA431101D515CD8511488512494E
:200D720085134A85144B8A4C22858243858344854F45855046855147E4F54DF54EAD52AEA6
:200D920053AF548D828E838FF012137AFC74012DF552E43EF5538F54ECFF700302127EBFCC
:200DB20025028003021276C208C209C20AC20BC20CC20DC20EC20F7556007557007CFFAAC5
:200DD20052AB53AE548A828B838EF012137AFFA3AA82AB838A528B538E54BF25078F8212D2
:200DF2000CD280998F5974D025595026E55924C64020BCFF12E55775F00AA4FD2F24D0F511
:200E12005770C2D20980BEEC75F00AA42F24D0FC80B3BF2E07BCFFAD7C0080A98F05BD611A
:200E320000400CED248540075307DFD2078002C207BF2002806DBF2B028063BF2D028059B6
:200E5200BF42028063BF43028068BF4403021020BF4603021036BF4803020DD7BF49030229
:200E72001020BF4A03020DD7BF4C028040BF4F03021027BF5003020FB5BF5302805CBF544C
:200E920003020DD7BF550302102CBF5803021031BF5A03020DD702103AD208020DD7D20ABB
:200EB200020DD7D20B020DD7D20D020DD7D20E020DD7300D0CE55514FE8E558E01870780D7
:200ED20011E55524FEFE8E558E018705098706198D078F82120CD2021043E55524FDFE8E17
:200EF200558E01870309870509870619198B488D498E4A8B828D838EF0C00412129FAD8243
:200F1200AE83D004BCFF028D0420082AC3ED95575024E557C39DF557AE578E031EEB60140F
:200F3200758220C006C005C004120CD2D004D005D00680E68E578C06854882854983854A7E
:200F5200F012137AFCFF602F8E041EC374808CF063F08095F050208F82C006C005120CD22F
:200F7200D005D006AA48AB49AC4A0ABA00010B8A488B498C4A80C1200803021043C3ED9586
:200F9200574003021043E557C39DF557AE578E041EEC7003021041758220C006120CD2D064
:200FB2000680EBE55524FDFC8C558C01870209870309870419198A488B498C4AAC4ABC8059
:200FD2000040047F438014BC600040047F50800BBC400040047F4980027F588F82C0071260
:200FF2000CD275823A120CD2758230120CD2758278120CD2D007BF4902800BBF5002800667
:20101200854982120D0E854882120D0E8023D20C75560A801C755608801775560A8012758D
:201032005610800DD20F80098F82120CD280028E57300F5CE55524FCFE8E558E01870209E2
:2010520087030987040987061919198A488B498C4A8E4B7548EF754916754A8085485A85BF
:20107200495B854A5C7401255AFAE4355BFCAE5C8A488C498E4A855A82855B83855CF01201
:20109200137AFEFF7003020D8F8F82120CD280CCE5567003020D8F75581B300D2DE555146A
:2010B200FC8C558C01E7FA3395E0FBFCFE8A488B498C4A8E4B200C66AA487B007C007E00E8
:2010D2008A488B498C4A8E4B8054300E21E55524FCFE8E558E01870209870309870409876C
:2010F200061919198A488B498C4A8E4B8030E55524FEFE8E558E01870409870619EE3395CC
:20111200E0FBFA8C488E498B4A8A4B200C10AA48AB497C007E008A488B498C4A8E4B300CE6
:2011320022E54B30E71BC3E49548FAE49549FBE4954AFCE4954BFE8A488B498C4A8E4B8088
:2011520002C20CD210A9587E00754C00855682C006C001120D25D001D00620100BE54CC48C
:20117200FCE7FB4CF7198002A74C0EB210E5484549454A454B70D289588E05E5577003752A
:201192005701200924200821ED04FEAC57C3EE9C5015758220C006C005C004120CD2D00481
:2011B200D005D0061C80E68C57300C0E75822DC005120CD2D00515578023ED6020300A0E51
:2011D20075822BC005120CD2D0051557800F300B0C758220C005120CD2D0051557200822B8
:2011F200AE578E041EC3ED9C502B3009047C3080027C208C82C006C005120CD2D005D00626
:2012120080E0C3ED95575008E557C39DF557800775570080028E57A9588D068E051EED6034
:2012320026B21020100A09E7C4540FFD8D4C80078705740F5DF54C854C82C006C001120C61
:20125200F5D001D00680D4200803020D8FAE578E051EED7003020D8F758220C006120CD242
:13127200D00680EB8F82120CD2020D8F854D82854E8322BD
:0B16EF003C4E4F20464C4F41543E0043
:1A128500E582C583F582A2D133A2D592D11392D5ECCFFCEBCEFBEACDFA22F1
:18129F00AA82AB8312137A6003A380F8C3E5829AF582E5839BF58322E8
:2012B700120A4330D502B2D1BF0009BC0003020C7A020C6DBC0003020C57E583B4FF0BE575
:2012D70082B4FF03020C7A020C57E582B4FF03020C6DC395835007247F400B020C57248011
:2012F700145003020C6DF582C3ED9AEE9BEF9C40111582C3EA33F9EB33FAEC33FBE433FC1A
:201317008005E4CCCBCAF9C08275F019C3E99DEA9EEB9FEC9400D5F002802D400EE99DF917
:20133700EA9EFAEB9FFBEC9400FCC3B3E833F8E58233F582E58333F583C3E933F9EA33FA77
:20135700EB33FBEC33FC80C4B3E4F938FAE43582FBE43583FCD082500405827C80120AB415
:03137700020C4E17
:0D00060075815C121431E582600302000375
:1C137A0020F71430F6148883A88220F507E6A88375830022E280F7E49322E02282
:20139600FCABF0AA83A982749EF582C2D1EC30E716D2D1E9F42401F9EAF43400FAEBF43456
:0D13B60000FBECF43400FC120AB4020C360B
:1313C300FCABF0AA83A982749EC2D1F582120AB4020C36F8
:2013D600121435C3749E958240397900120A7130D126E9F42401F582EAF43400F583EBF428
:2013F6003400F5F0ECF43400700AE582458345F0700122E430E70F22EC20E71489828A83EE
:1B1416008BF02230D10AE4F582F583F5F074802274FFF582F583F5F0747F22E9
:04143100758200229E
:12143500AA82AB83A2F73392D1F5826002D2F7ACF022BC
:00000001FF
