:0400000002001132B7
:03000B000202F9F5
:14006A00750801750900750A0E750B00E4F50CF50D02000E82
:03000E000200935A
:20007E00AF8210990280FB8F992210980280FBE5998599822275840F12031512038112037F
:20009E003412037112039975840074E0C0E07409C0E07480C0E01203CC158115811581D2C7
:2000BE00AC75840074F2C0E07409C0E07480C0E01203CC15811581158174F7C0E07409C0DB
:2000DE00E07480C0E01203CC15811581158110980280FBAF998F82C00712012FD0078F827C
:2000FE001202987584007E657F001EBEFF011FEE4F70F7120228AF82C2FF7584008F82C044
:20011E00071201A1D007BF7F031202BDC2FF80BE22AF82C007C008C0097401C0E0740AC020
:20013E00E07480C0E01203CCE58124FBF581D007C3E508940DE50964809480500A0508E4F8
:20015E00B5083805098034C0077409C0E0740AC0E07480C0E01203CC158115811581750814
:20017E0002750900740EC0E0740AC0E07480C0E01203CC158115811581D00710990280FB6D
:20019E008F9922AF82C007C00AC00B7401C0E0740AC0E07480C0E01203CCE58124FBF581C7
:2001BE00D007C3E50A9419E50B64809480500A050AE4B50A4D050B8049C0077415C0E0746D
:2001DE000AC0E07480C0E01203CC158115811581741DC0E0740AC0E07480C0E01203CC1547
:2001FE008115811581750A0C750B007415C0E0740AC0E07480C0E01203CC158115811581AB
:20021E00D00710990280FB8F9922758400C2FA7E657F001EBEFF011FEE4F70F730FFFD8512
:20023E009B82227F66758400C2FA7D657E001DBDFF011EED4E70F710FF02800280F98F9B97
:20025E0030FFFD7E657F001EBEFF011FEE4F70F7F50CF50DC3E50C9401E50D6480948040DD
:20027E00F37421C0E0740AC0E07480C0E01203CC158115811581859B8222AF82758400C233
:20029E00FFD2FA10FF02800280F98F9B30FFFD7E657F001EBEFF011FEE4F70F7C2FA227FB5
:2002BE0000C007742EC0E0740AC0E07480C0E01203CC158115811581D007BFFF02801B127E
:2002DE000241AF82C0071201A1D0077D657E001DBDFF011EED4E70F780E022C0E0C0D07519
:2002FE008400C28F050CE4B50C02050D758B00758D00D0D0D0E03275840F758C677E007F50
:20031E00011EBEFF011FEE4F70F7E58C30E7FB759701758A002275840075884075892075A5
:20033E008E10758DA0858D8B7443C0E0740AC0E07480C0E01203CC1581158115817584001D
:20035E0075C80475C90875CDFF75CC7075CA7075CBFF22758400D2CA759850759115D2997E
:20037E00D28E2275840F75A43575808A75FFDE75FFADD2AF75E10675E34022758400759AF6
:0A039E004075F80D759D26D2FF2270
:2009E0006174206C656173742069276D2068657265001B5B324A0049276D20616C69766508
:200A0000001B5B25643B3148001B5B314A001B5B313B3148001B5B31323B3148001B5B4A8A
:200A20000049206D616465206974200A0D00202020796F752070726573736564203C4445CA
:0F0A40004C3E0074696D6572203120736574003F
:06004000E478FFF6D8FD94
:20001E007900E94400601B7A00900A5A780175A200E493F2A308B8000205A2D9F4DAF27520
:02003E00A2FF1F
:200046007800E84400600A790175A200E4F309D8FC7800E84400600C7900900001E4F0A3B6
:04006600D8FCD9FAEF
:2003A800C00F85810F12007ED00F2285823185833285F033E4F52EF52FF530850E349003FC
:2003C800A802049EC00F85810FE50F24FBFF8F34E4F52EF52FF530E50F24FBF88631088670
:0D03E800320886339003A812049ED00F2225
:2003F500AF82C024C025C0261204028007C022C0238F8222158115811581052CE4B52C02B7
:20041500052D22AF8274302FFF24C6500A74072FFF3000034307208F820203F5E582FFC4B1
:20043500540FF582C007120418D007740F5FF58202041885821085271185281285291385B1
:200455002A14AA2B751520EA2AFAE514235401FF8A064EFAE5112511F511E51233F512E52C
:200475001333F513E51433F514C3EA95104008EAC39510FA431101D515CD85112785122876
:2004950085132985142A8A2B22858222858323852E24852F25853026E4F52CF52DAD31AE5A
:2004B50032AF338D828E838FF01209C0FC74012DF531E43EF5328F33ECFF70030209A1BF01
:2004D50025028003020999C201C202C203C204C205C206C207C2087535007536007CFFAA0B
:2004F50031AB32AE338A828B838EF01209C0FFA3AA82AB838A318B328E33BF25078F821242
:2005150003F580998F3874D025385026E53824C64020BCFF12E53675F00AA4FD2F24D0F560
:200535003670C2D20280BEEC75F00AA42F24D0FC80B3BF2E07BCFFAD7C0080A98F05BD6128
:2005550000400CED248540075307DFD2008002C200BF2002806DBF2B028063BF2D028059AA
:20057500BF42028063BF43028068BF4403020743BF4603020759BF48030204FABF490302C1
:200595000743BF4A030204FABF4C028040BF4F0302074ABF50030206D8BF5302805CBF54CA
:2005B500030204FABF550302074FBF5803020754BF5A030204FA02075DD2010204FAD20313
:2005D5000204FAD2040204FAD2060204FAD2070204FA30060CE53414FE8E348E01870780B3
:2005F50011E53424FEFE8E348E018705098706198D078F821203F5020766E53424FDFE8E2C
:20061500348E01870309870509870619198B278D288E298B828D838EF0C0041209A8AD82AC
:20063500AE83D004BCFF028D0420012AC3ED95365024E536C39DF536AE368E031EEB601480
:20065500758220C006C005C0041203F5D004D005D00680E68E368C068527828528838529CE
:20067500F01209C0FCFF602F8E041EC374808CF063F08095F050208F82C006C0051203F5BF
:20069500D005D006AA27AB28AC290ABA00010B8A278B288C2980C1200103020766C3ED951F
:2006B500364003020766E536C39DF536AE368E041EEC7003020764758220C0061203F5D080
:2006D5000680EBE53424FDFC8C348C01870209870309870419198A278B288C29AC29BC8005
:2006F5000040047F438014BC600040047F50800BBC400040047F4980027F588F82C0071246
:2007150003F575823A1203F57582301203F57582781203F5D007BF4902800BBF50028006E4
:200735008528821204318527821204318023D20575350A801C753508801775350A801275EB
:200755003510800DD20880098F821203F580028E3630085CE53424FCFE8E348E0187020940
:2007750087030987040987061919198A278B288C298E2A75274F75280A752980852739857A
:20079500283A85293B74012539FAE4353AFCAE3B8A278C288E29853982853A83853BF01294
:2007B50009C0FEFF70030204B28F821203F580CCE53570030204B275371B30062DE5341430
:2007D500FC8C348C01E7FA3395E0FBFCFE8A278B288C298E2A200566AA277B007C007E009B
:2007F5008A278B288C298E2A8054300721E53424FCFE8E348E01870209870309870409871F
:20081500061919198A278B288C298E2A8030E53424FEFE8E348E01870409870619EE339577
:20083500E0FBFA8C278E288B298A2A200510AA27AB287C007E008A278B288C298E2A300524
:2008550022E52A30E71BC3E49527FAE49528FBE49529FCE4952AFE8A278B288C298E2A8097
:2008750002C205D209A9377E00752B00853582C006C001120448D001D00620090BE52BC4F1
:20089500FCE7FB4CF7198002A72B0EB209E52745284529452A70D289378E05E536700375FE
:2008B5003601200224200121ED04FEAC36C3EE9C5015758220C006C005C0041203F5D0049D
:2008D500D005D0061C80E68C3630050E75822DC0051203F5D00515368023ED602030030E6D
:2008F50075822BC0051203F5D0051536800F30040C758220C0051203F5D0051536200122BA
:20091500AE368E041EC3ED9C502B3002047C3080027C208C82C006C0051203F5D005D00619
:2009350080E0C3ED95365008E536C39DF536800775360080028E36A9378D068E051EED60E0
:2009550026B20920090A09E7C4540FFD8D2B80078705740F5DF52B852B82C006C0011204C0
:2009750018D001D00680D42001030204B2AE368E051EED70030204B2758220C0061203F5DF
:13099500D00680EB8F821203F50204B2852C82852D8322B1
:0B0A4F003C4E4F20464C4F41543E00EF
:1809A800AA82AB831209C06003A380F8C3E5829AF582E5839BF58322AC
:0D00110075813B1209DCE582600302000EE0
:1C09C00020F71430F6148883A88220F507E6A88375830022E280F7E49322E02246
:0409DC0075820022FE
:00000001FF
