:0400000002002132A7
:01000B0032C2
:0100130032BA
:03001B000202FEE0
:14007A00750801750900750A0E750B00E4F50CF50D02001E62
:03001E000200A33A
:20008E00AF8210990280FB8F992210980280FBE5998599822275840F43A888D2BB12031A15
:2000AE0012037912033912036112039175840074D8C0E07409C0E07480C0E01203C4158135
:2000CE001581158174DDC0E07409C0E07480C0E01203C415811581158110980280FBAF993C
:2000EE008F82C007120128D0078F8212027D7584007E657F001EBEFF011FEE4F70F7120258
:20010E0021AF82C2FF7584008F82C00712019AD007BF7FC51202A080C022AF82C007C00890
:20012E00C00974EDC0E07409C0E07480C0E01203C4E58124FBF581D007C3E508940DE5094C
:20014E0064809480500A0508E4B5083805098034C00774F5C0E07409C0E07480C0E0120301
:20016E00C415811581158175080275090074FAC0E07409C0E07480C0E01203C4158115812A
:20018E001581D00710990280FB8F9922AF82C007C00AC00B74EDC0E07409C0E07480C0E035
:2001AE001203C4E58124FBF581D007C3E50A9419E50B64809480500A050AE4B50A4D050BD6
:2001CE008049C0077401C0E0740AC0E07480C0E01203C41581158115817409C0E0740AC0C4
:2001EE00E07480C0E01203C4158115811581750A0C750B007401C0E0740AC0E07480C0E010
:20020E001203C4158115811581D00710990280FB8F9922758400C2FA7E657F001EBEFF01FB
:20022E001FEE4F70F730FFFD859B82227F65758400C2FA7D657E001DBDFF011EED4E70F76A
:20024E0010FF02800280F98F9B30FFFDD2FA7E657F001EBEFF011FEE4F70F7750C01F50DDD
:20026E00C3E50C94D0E50D940740F5859B8222AF82758400C2FFC2FA10FF02800280F98F90
:20028E009B30FFFD7E657F001EBEFF011FEE4F70F7227F00C007740DC0E0740AC0E07480ED
:2002AE00C0E01203C4158115811581D007BFFF02803DE4F50CF50DAB0CAC0D7D007E00C38C
:2002CE00EB944FEC94C3ED9400EE6480948040E712023AAF82C2FA8F82C00712019AD007DA
:2002EE007D657E001DBDFF011EED4E70F780BE22C0E0C0D0758400C28F050CE4B50C02055F
:20030E000D758B00758D00D0D0D0E03275840F758C677E007F011EBEFF011FEE4F70F7E54C
:20032E008C30E7FB759701758A0022758400758840758920758E10758DA0858D8B75840044
:20034E0075C80475C90875CDFF75CC7075CA7075CBFF22758400D2CA759850759115D2998E
:20036E00D28E758401759850D2992275840F75A4757580AA75FFDE75FFADD2AF75E1067531
:12038E00E34422758400759A4075F80D759D26D2FF2227
:2009D8001B5B324A005541525420697320776F726B696E67001B5B25643B3148001B5B315A
:2009F8004A001B5B313B3148001B5B31323B3148001B5B4A00202020796F75207072657356
:0A0A1800736564203C44454C3E0029
:06005000E478FFF6D8FD84
:20002E007900E94400601B7A00900A2D780175A200E493F2A308B8000205A2D9F4DAF2753D
:02004E00A2FF0F
:200056007800E84400600A790175A200E4F309D8FC7800E84400600C7900900001E4F0A3A6
:04007600D8FCD9FADF
:2003A000C00F85810F12008ED00F2285823185833285F033E4F52EF52FF530850E349003F4
:2003C000A0020496C00F85810FE50F24FBFF8F34E4F52EF52FF530E50F24FBF88631088688
:0D03E000320886339003A0120496D00F223D
:2003ED00AF82C024C025C0261203FA8007C022C0238F8222158115811581052CE4B52C02C8
:20040D00052D22AF8274302FFF24C6500A74072FFF3000034307208F820203EDE582FFC4C1
:20042D00540FF582C007120410D007740F5FF58202041085821085271185281285291385C9
:20044D002A14AA2B751520EA2AFAE514235401FF8A064EFAE5112511F511E51233F512E534
:20046D001333F513E51433F514C3EA95104008EAC39510FA431101D515CD8511278512287E
:20048D0085132985142A8A2B22858222858323852E24852F25853026E4F52CF52DAD31AE62
:2004AD0032AF338D828E838FF01209B8FC74012DF531E43EF5328F33ECFF7003020999BF19
:2004CD0025028003020991C201C202C203C204C205C206C207C2087535007536007CFFAA1B
:2004ED0031AB32AE338A828B838EF01209B8FFA3AA82AB838A318B328E33BF25078F821252
:20050D0003ED80998F3874D025385026E53824C64020BCFF12E53675F00AA4FD2F24D0F570
:20052D003670C2D20280BEEC75F00AA42F24D0FC80B3BF2E07BCFFAD7C0080A98F05BD6130
:20054D0000400CED248540075307DFD2008002C200BF2002806DBF2B028063BF2D028059B2
:20056D00BF42028063BF43028068BF440302073BBF4603020751BF48030204F2BF490302E1
:20058D00073BBF4A030204F2BF4C028040BF4F03020742BF50030206D0BF5302805CBF54F2
:2005AD00030204F2BF5503020747BF580302074CBF5A030204F2020755D2010204F2D2034B
:2005CD000204F2D2040204F2D2060204F2D2070204F230060CE53414FE8E348E01870780DB
:2005ED0011E53424FEFE8E348E018705098706198D078F821203ED02075EE53424FDFE8E44
:20060D00348E01870309870509870619198B278D288E298B828D838EF0C0041209A0AD82BC
:20062D00AE83D004BCFF028D0420012AC3ED95365024E536C39DF536AE368E031EEB601488
:20064D00758220C006C005C0041203EDD004D005D00680E68E368C068527828528838529DE
:20066D00F01209B8FCFF602F8E041EC374808CF063F08095F050208F82C006C0051203EDD7
:20068D00D005D006AA27AB28AC290ABA00010B8A278B288C2980C120010302075EC3ED952F
:2006AD0036400302075EE536C39DF536AE368E041EEC700302075C758220C0061203EDD0A0
:2006CD000680EBE53424FDFC8C348C01870209870309870419198A278B288C29AC29BC800D
:2006ED000040047F438014BC600040047F50800BBC400040047F4980027F588F82C007124E
:20070D0003ED75823A1203ED7582301203ED7582781203EDD007BF4902800BBF500280060C
:20072D008528821204298527821204298023D20575350A801C753508801775350A80127503
:20074D003510800DD20880098F821203ED80028E3630085CE53424FCFE8E348E0187020950
:20076D0087030987040987061919198A278B288C298E2A75272275280A75298085273985AF
:20078D00283A85293B74012539FAE4353AFCAE3B8A278C288E29853982853A83853BF0129C
:2007AD0009B8FEFF70030204AA8F821203ED80CCE53570030204AA75371B30062DE5341458
:2007CD00FC8C348C01E7FA3395E0FBFCFE8A278B288C298E2A200566AA277B007C007E00A3
:2007ED008A278B288C298E2A8054300721E53424FCFE8E348E018702098703098704098727
:20080D00061919198A278B288C298E2A8030E53424FEFE8E348E01870409870619EE33957F
:20082D00E0FBFA8C278E288B298A2A200510AA27AB287C007E008A278B288C298E2A30052C
:20084D0022E52A30E71BC3E49527FAE49528FBE49529FCE4952AFE8A278B288C298E2A809F
:20086D0002C205D209A9377E00752B00853582C006C001120440D001D00620090BE52BC401
:20088D00FCE7FB4CF7198002A72B0EB209E52745284529452A70D289378E05E53670037506
:2008AD003601200224200121ED04FEAC36C3EE9C5015758220C006C005C0041203EDD004AD
:2008CD00D005D0061C80E68C3630050E75822DC0051203EDD00515368023ED602030030E7D
:2008ED0075822BC0051203EDD0051536800F30040C758220C0051203EDD0051536200122D2
:20090D00AE368E041EC3ED9C502B3002047C3080027C208C82C006C0051203EDD005D00629
:20092D0080E0C3ED95365008E536C39DF536800775360080028E36A9378D068E051EED60E8
:20094D0026B20920090A09E7C4540FFD8D2B80078705740F5DF52B852B82C006C0011204C8
:20096D0010D001D00680D42001030204AAAE368E051EED70030204AA758220C0061203ED07
:13098D00D00680EB8F821203ED0204AA852C82852D8322C9
:0B0A22003C4E4F20464C4F41543E001C
:1809A000AA82AB831209B86003A380F8C3E5829AF582E5839BF58322BC
:0D00210075813B1209D4E582600302001EC8
:1C09B80020F71430F6148883A88220F507E6A88375830022E280F7E49322E0224E
:0409D4007582002206
:00000001FF
