:0400000002002132A7
:01000B0032C2
:0100130032BA
:03001B00020328B5
:14007A00750801750900750A0E750B00E4F50CF50D02001E62
:03001E000200A33A
:20008E00AF8210990280FB8F992210980280FBE5998599822275840F43A888D2BB120344EB
:2000AE001203A312036312038B1203BB7584007402C0E0740AC0E07480C0E01203EE158138
:2000CE00158115817407C0E0740AC0E07480C0E01203EE15811581158110980280FBAF99E7
:2000EE008F82C007120128D0078F821202A77584007E657F001EBEFF011FEE4F70F712022E
:20010E0021AF82C2FF7584008F82C00712019AD007BF7FC51202CA80C022AF82C007C00866
:20012E00C0097417C0E0740AC0E07480C0E01203EEE58124FBF581D007C3E508940DE509F7
:20014E0064809480500A0508E4B5083805098034C007741FC0E0740AC0E07480C0E01203D6
:20016E00EE1581158115817508027509007424C0E0740AC0E07480C0E01203EE15811581AB
:20018E001581D00710990280FB8F9922AF82C007C00AC00B7417C0E0740AC0E07480C0E00A
:2001AE001203EEE58124FBF581D007C3E50A9419E50B64809480500A050AE4B50A4D050BAC
:2001CE008049C007742BC0E0740AC0E07480C0E01203EE1581158115817433C0E0740AC046
:2001EE00E07480C0E01203EE158115811581750A0C750B00742BC0E0740AC0E07480C0E0BC
:20020E001203EE158115811581D00710990280FB8F9922758400C2FA7E657F001EBEFF01D1
:20022E001FEE4F70F77582641202A730FFFDD2FA7E657F001EBEFF011FEE4F70F7750C015C
:20024E00F50DC3E50C94D0E50D940740F5C2FA859B82227F65758400C2FA7D657E001DBD61
:20026E00FF011EED4E70F710FF02800280F98F9B30FFFDD2FA750C01750D00C3E50C94D066
:20028E00E50D940740F5C2FA7E657F001EBEFF011FEE4F70F7859B8222AF82758400C2FF22
:2002AE00C2FA10FF02800280F98F9B30FFFD7E657F001EBEFF011FEE4F70F7227F00C007A9
:2002CE007437C0E0740AC0E07480C0E01203EE158115811581D007BFFF02803DE4F50CF520
:2002EE000DAB0CAC0D7D007E00C3EB944FEC94C3ED9400EE6480948040E7120261AF82C2AE
:20030E00FA8F82C00712019AD0077D657E001DBDFF011EED4E70F780BE22C0E0C0D07584F6
:20032E0000C28F050CE4B50C02050D758B00758D00D0D0D0E03275840F758C677E007F01A2
:20034E001EBEFF011FEE4F70F7E58C30E7FB759701758A0022758400758840758920758EE8
:20036E0010758DA0858D8B75840075C80475C90875CDFF75CC7075CA7075CBFF22758400A5
:20038E00D2CA759850759115D299D28E758401759850D2992275840F75A4757580AA75FFE3
:1C03AE00DE75FFADD2AF75E10675E34422758400759A4075F80D759D26D2FF22AC
:200A02001B5B324A005541525420697320776F726B696E67001B5B25643B3148001B5B312F
:200A22004A001B5B313B3148001B5B31323B3148001B5B4A00202020796F7520707265732B
:0A0A4200736564203C44454C3E00FF
:06005000E478FFF6D8FD84
:20002E007900E94400601B7A00900A57780175A200E493F2A308B8000205A2D9F4DAF27513
:02004E00A2FF0F
:200056007800E84400600A790175A200E4F309D8FC7800E84400600C7900900001E4F0A3A6
:04007600D8FCD9FADF
:2003CA00C00F85810F12008ED00F2285823185833285F033E4F52EF52FF530850E349003CA
:2003EA00CA0204C0C00F85810FE50F24FBFF8F34E4F52EF52FF530E50F24FBF8863108860A
:0D040A00320886339003CA1204C0D00F22BE
:20041700AF82C024C025C0261204248007C022C0238F8222158115811581052CE4B52C0272
:20043700052D22AF8274302FFF24C6500A74072FFF3000034307208F82020417E582FFC46C
:20045700540FF582C00712043AD007740F5FF58202043A858210852711852812852913854B
:200477002A14AA2B751520EA2AFAE514235401FF8A064EFAE5112511F511E51233F512E50A
:200497001333F513E51433F514C3EA95104008EAC39510FA431101D515CD85112785122854
:2004B70085132985142A8A2B22858222858323852E24852F25853026E4F52CF52DAD31AE38
:2004D70032AF338D828E838FF01209E2FC74012DF531E43EF5328F33ECFF70030209C3BF9B
:2004F700250280030209BBC201C202C203C204C205C206C207C2087535007536007CFFAAC7
:2005170031AB32AE338A828B838EF01209E2FFA3AA82AB838A318B328E33BF25078F8212FD
:20053700041780998F3874D025385026E53824C64020BCFF12E53675F00AA4FD2F24D0F51B
:200557003670C2D20280BEEC75F00AA42F24D0FC80B3BF2E07BCFFAD7C0080A98F05BD6106
:2005770000400CED248540075307DFD2008002C200BF2002806DBF2B028063BF2D02805988
:20059700BF42028063BF43028068BF4403020765BF460302077BBF480302051CBF49030238
:2005B7000765BF4A0302051CBF4C028040BF4F0302076CBF50030206FABF5302805CBF541F
:2005D7000302051CBF5503020771BF5803020776BF5A0302051C02077FD20102051CD20322
:2005F70002051CD20402051CD20602051CD20702051C30060CE53414FE8E348E0187078005
:2006170011E53424FEFE8E348E018705098706198D078F82120417020788E53424FDFE8EC4
:20063700348E01870309870509870619198B278D288E298B828D838EF0C0041209CAAD8268
:20065700AE83D004BCFF028D0420012AC3ED95365024E536C39DF536AE368E031EEB60145E
:20067700758220C006C005C004120417D004D005D00680E68E368C06852782852883852989
:20069700F01209E2FCFF602F8E041EC374808CF063F08095F050208F82C006C00512041758
:2006B700D005D006AA27AB28AC290ABA00010B8A278B288C2980C1200103020788C3ED95DB
:2006D700364003020788E536C39DF536AE368E041EEC7003020786758220C006120417D0F7
:2006F7000680EBE53424FDFC8C348C01870209870309870419198A278B288C29AC29BC80E3
:200717000040047F438014BC600040047F50800BBC400040047F4980027F588F82C0071223
:20073700041775823A120417758230120417758278120417D007BF4902800BBF5002800636
:200757008528821204538527821204538023D20575350A801C753508801775350A80127585
:200777003510800DD20880098F8212041780028E3630085CE53424FCFE8E348E01870209FB
:2007970087030987040987061919198A278B288C298E2A75274C75280A752980852739855B
:2007B700283A85293B74012539FAE4353AFCAE3B8A278C288E29853982853A83853BF01272
:2007D70009E2FEFF70030204D48F8212041780CCE53570030204D475371B30062DE5341485
:2007F700FC8C348C01E7FA3395E0FBFCFE8A278B288C298E2A200566AA277B007C007E0079
:200817008A278B288C298E2A8054300721E53424FCFE8E348E0187020987030987040987FC
:20083700061919198A278B288C298E2A8030E53424FEFE8E348E01870409870619EE339555
:20085700E0FBFA8C278E288B298A2A200510AA27AB287C007E008A278B288C298E2A300502
:2008770022E52A30E71BC3E49527FAE49528FBE49529FCE4952AFE8A278B288C298E2A8075
:2008970002C205D209A9377E00752B00853582C006C00112046AD001D00620090BE52BC4AD
:2008B700FCE7FB4CF7198002A72B0EB209E52745284529452A70D289378E05E536700375DC
:2008D7003601200224200121ED04FEAC36C3EE9C5015758220C006C005C004120417D00458
:2008F700D005D0061C80E68C3630050E75822DC005120417D00515368023ED602030030E28
:2009170075822BC005120417D0051536800F30040C758220C005120417D005153620012251
:20093700AE368E041EC3ED9C502B3002047C3080027C208C82C006C005120417D005D006D4
:2009570080E0C3ED95365008E536C39DF536800775360080028E36A9378D068E051EED60BE
:2009770026B20920090A09E7C4540FFD8D2B80078705740F5DF52B852B82C006C00112049E
:200997003AD001D00680D42001030204D4AE368E051EED70030204D4758220C00612041734
:1309B700D00680EB8F821204170204D4852C82852D83224A
:0B0A4C003C4E4F20464C4F41543E00F2
:1809CA00AA82AB831209E26003A380F8C3E5829AF582E5839BF5832268
:0D00210075813B1209FEE582600302001E9E
:1C09E20020F71430F6148883A88220F507E6A88375830022E280F7E49322E02224
:0409FE0075820022DC
:00000001FF
