:03000000020006F5
:03005F0002000399
:0300030002008177
:20006200AF8210990280FB8F992210980280FBE5998599822275FFDE75FFAD7582002212DA
:20008200041C12043F12047175840074C9C0E0740AC0E07480C0E01204B915811581158149
:2000A20074CEC0E0740AC0E07480C0E01204B915811581158112006C74E4C0E0740AC0E085
:2000C2007480C0E01204B915811581158112006CAF828F057E00C007C005C0067418C0E0BA
:2000E200740BC0E07480C0E01204B9E58124FBF58112006CD0078F0A1201C6120151750AD7
:20010200337582001201C6750A317582AA1201C6750A327582AA1201C6750A317582551277
:2001220001C6750A327582551201C67401C0E07400C0E0E4C0E07441C0E0740BC0E074800B
:20014200C0E01204B9E58124FAF5810200B722745CC0E0740BC0E07480C0E01204B91581D1
:20016200158115817EF07F1F8E828F83E0FD7C00C007C006C005C004C005C004746CC0E0AB
:20018200740BC0E07480C0E01204B9E58124F9F581D006D007C007C006C006C007748FC058
:2001A200E0740BC0E07480C0E01204B9E58124FBF581D006D0070EBE00010FC3EF6480942D
:2001C200A040A52285820B74A2C0E0740BC0E07480C0E01204B91581158115817431B50A06
:2001E20002800302028D7D007E208D038E048B0C8C0D850C82850D83E50BF0850C82850DCD
:2002020083E0F87F00850C82850D83E0F97A00C004C003C000C007C001C00274B5C0E074B9
:200222000BC0E07480C0E01204B9E58124F9F581D003D004C004C003C003C004748FC0E05D
:20024200740BC0E07480C0E01204B9E58124FBF581D003D004850C82850D83E0FF7A00E512
:200262000BF83395E0F9EFB50006EAB501028008900001EBF0ECA3F00BBB00010CC3EC6433
:200282008094A850030201F002041B7432B50A02800302033A7D007E288D078F0C8E0D859E
:2002A2000C82850D83E50BF0850C82850D83E0FD7C00850C82850D83E0FB7A00C007C0062E
:2002C200C005C004C003C00274B5C0E0740BC0E07480C0E01204B9E58124F9F581D006D024
:2002E20007C007C006C007C006748FC0E0740BC0E07480C0E01204B9E58124FBF581D006E5
:20030200D007850C82850D83E0FD7C00E50BFA3395E0FBEDB50206ECB5030280089000018D
:20032200EFF0EEA3F00FBF00010EC3EE648094B0500302029D02041B7433B50A02800302A3
:2003420004067E007F408E0C8F0D850C82850D83E50BF0850C82850D83E0FD7C00C007C00E
:2003620006C005C00474D9C0E0740BC0E07480C0E01204B9E58124FBF581D006D007C0070E
:20038200C006C006C00774EFC0E0740BC0E07480C0E01204B9E58124FBF581E50BFC3395D4
:2003A200E0FDC005C004C004C0057400C0E0740CC0E07480C0E01204B9E58124FBF581D0EA
:2003C20004D005D006D007850C82850D83E0FB7A00B50406EAB505028008900001EEF0EFCD
:2003E200A3F0C3E50B6480948F5004050B8003750B000EBE00010FC3EF648094C350030229
:2004020003488015741AC0E0740CC0E07480C0E01204B915811581158122AF8475840F75B5
:200422008C677DB87E0B1DBDFF011EED4E70F7E58C30E7FB759701758A008F8422AF847503
:20044200840F75E10475E20075E34043A401759CFF759DFF759EFF759FFF75D8FF75E8FFE8
:2004620075F8FF75840075A33B75A1FF8F8422AF8475840075884053890F438920438E1057
:13048200758DE8D28E758400759850759100D2998F842221
:200AC9001B5B324A004D5053204C61622035202D204D656D6F72790A0A0D000A0D576F754E
:200AE9006C6420796F75206C696B6520746F2074616C6B20746F2065787465726E616C2066
:200B09006D656D6F72792031206F7220323F000A0D576861742076616C756520776F756C81
:200B29006420796F75206C696B6520746F2077726974653F202578000A0D204572726F727B
:200B490073204F6363757265642061742E2E2E202564004F6E20426F6172642044617461AD
:200B69000A0D000D0A446174612073746F72656420696E206D656D6F72793A2030782558E4
:200B89002C2025632000202020416464726573733A20307825580D0A000A0D4F6666204208
:200BA9006F61726420446174610A0D000D0A44617461207772697474656E20746F206D6522
:200BC9006D6F72793A20307825582C20256320000D0A44617461207772697474656E3A20BA
:200BE900307825582000202020416464726573733A2030782558002020204461746120699F
:200C09006E74656E6465643A2030782558200A0D000A0D20546861742065787465726E6154
:200C29006C206D656D6F7279206C6F636174696F6E20646F6573206E6F7420657869747384
:020C4900200089
:06003500E478FFF6D8FD9F
:200013007900E94400601B7A00900C56780175A204E493F2A308B8000205A2D9F4DAF27529
:02003300A2FF2A
:20003B007800E84400600A790175A200E4F309D8FC7800E84404600C7904900001E4F0A3B9
:04005B00D8FCD9FAFA
:20049500C00F85810F120062D00F2285823185833285F033E4F52EF52FF530850E34900429
:2004B5009502058BC00F85810FE50F24FBFF8F34E4F52EF52FF530E50F24FBF886310886A7
:0D04D5003208863390049512058BD00F225B
:2004E200AF82C024C025C0261204EF8007C022C0238F8222158115811581052CE4B52C02DC
:20050200052D22AF8274302FFF24C6500A74072FFF3000034307208F820204E2E582FFC4D5
:20052200540FF582C007120505D007740F5FF58202050585821085271185281285291385E7
:200542002A14AA2B751520EA2AFAE514235401FF8A064EFAE5112511F511E51233F512E53E
:200562001333F513E51433F514C3EA95104008EAC39510FA431101D515CD85112785122888
:2005820085132985142A8A2B22858222858323852E24852F25853026E4F52CF52DAD31AE6C
:2005A20032AF338D828E838FF0120AADFC74012DF531E43EF5328F33ECFF7003020A8EBF37
:2005C20025028003020A86C201C202C203C204C205C206C207C2087535007536007CFFAA2F
:2005E20031AB32AE338A828B838EF0120AADFFA3AA82AB838A318B328E33BF25078F821266
:2006020004E280998F3874D025385026E53824C64020BCFF12E53675F00AA4FD2F24D0F584
:200622003670C2D20280BEEC75F00AA42F24D0FC80B3BF2E07BCFFAD7C0080A98F05BD613A
:2006420000400CED248540075307DFD2008002C200BF2002806DBF2B028063BF2D028059BC
:20066200BF42028063BF43028068BF4403020830BF4603020846BF48030205E7BF49030209
:200682000830BF4A030205E7BF4C028040BF4F03020837BF50030207C5BF5302805CBF5424
:2006A200030205E7BF550302083CBF5803020841BF5A030205E702084AD2010205E7D20391
:2006C2000205E7D2040205E7D2060205E7D2070205E730060CE53414FE8E348E018707800D
:2006E20011E53424FEFE8E348E018705098706198D078F821204E2020853E53424FDFE8E62
:20070200348E01870309870509870619198B278D288E298B828D838EF0C004120A95AD82D0
:20072200AE83D004BCFF028D0420012AC3ED95365024E536C39DF536AE368E031EEB601492
:20074200758220C006C005C0041204E2D004D005D00680E68E368C068527828528838529F2
:20076200F0120AADFCFF602F8E041EC374808CF063F08095F050208F82C006C0051204E2F5
:20078200D005D006AA27AB28AC290ABA00010B8A278B288C2980C1200103020853C3ED9543
:2007A200364003020853E536C39DF536AE368E041EEC7003020851758220C0061204E2D0C8
:2007C2000680EBE53424FDFC8C348C01870209870309870419198A278B288C29AC29BC8017
:2007E2000040047F438014BC600040047F50800BBC400040047F4980027F588F82C0071258
:2008020004E275823A1204E27582301204E27582781204E2D007BF4902800BBF500280063E
:2008220085288212051E85278212051E8023D20575350A801C753508801775350A80127521
:200842003510800DD20880098F821204E280028E3630085CE53424FCFE8E348E0187020964
:2008620087030987040987061919198A278B288C298E2A75274B75280C752980852739858E
:20088200283A85293B74012539FAE4353AFCAE3B8A278C288E29853982853A83853BF012A6
:2008A2000AADFEFF700302059F8F821204E280CCE535700302059F75371B30062DE534148A
:2008C200FC8C348C01E7FA3395E0FBFCFE8A278B288C298E2A200566AA277B007C007E00AD
:2008E2008A278B288C298E2A8054300721E53424FCFE8E348E018702098703098704098731
:20090200061919198A278B288C298E2A8030E53424FEFE8E348E01870409870619EE339589
:20092200E0FBFA8C278E288B298A2A200510AA27AB287C007E008A278B288C298E2A300536
:2009420022E52A30E71BC3E49527FAE49528FBE49529FCE4952AFE8A278B288C298E2A80A9
:2009620002C205D209A9377E00752B00853582C006C001120535D001D00620090BE52BC415
:20098200FCE7FB4CF7198002A72B0EB209E52745284529452A70D289378E05E53670037510
:2009A2003601200224200121ED04FEAC36C3EE9C5015758220C006C005C0041204E2D004C1
:2009C200D005D0061C80E68C3630050E75822DC0051204E2D00515368023ED602030030E91
:2009E20075822BC0051204E2D0051536800F30040C758220C0051204E2D0051536200122F0
:200A0200AE368E041EC3ED9C502B3002047C3080027C208C82C006C0051204E2D005D0063D
:200A220080E0C3ED95365008E536C39DF536800775360080028E36A9378D068E051EED60F2
:200A420026B20920090A09E7C4540FFD8D2B80078705740F5DF52B852B82C006C0011205D1
:200A620005D001D00680D420010302059FAE368E051EED700302059F758220C0061204E23A
:130A8200D00680EB8F821204E202059F852C82852D8322E7
:0B0C4B003C4E4F20464C4F41543E00F1
:180A9500AA82AB83120AAD6003A380F8C3E5829AF582E5839BF58322D0
:0D00060075813B120077E582600302000364
:1C0AAD0020F71430F6148883A88220F507E6A88375830022E280F7E49322E02258
:00000001FF
