:0400000002001132B7
:03000B0002012AC5
:0E006A00E4F508F509F50AF50BC20002000ED8
:03000E0002008D60
:20007800AF8210990280FB8F992210980280FBE5998599822275840F43A802120143120104
:20009800621201B8758400D28875840074A0C0E07408C0E07480C0E01202561581158115C0
:2000B8008174A5C0E07408C0E07480C0E012025615811581158175840FD2A87584007464BF
:2000D800B50A06E4B50B028002800EE4F50AF50B0508B508020509C200750E0A750F008578
:2000F8000882850983120866E5828583F045F070CD2000CAD200C008C00974C1C0E074085E
:20011800C0E07480C0E0120256E58124FBF58180AD22C0E0C0D0C28D050AE4B50A02050B9C
:20013800758A00758C00D0D0D0E032AF8475840F75FFDE75FFADD2AF75E10475E20075E3ED
:200158004075A4017580068F8422AF8475840F758C677D007E011DBDFF011EED4E70F7E5DF
:200178008C30E7FB759701758A0075840F75890475840075B71075840F438901758D1B7517
:200198008F01758E507D007E011DBDFF011EED4E70F7438902E58930E4FB7597028F842240
:2001B800AF84758400AE89740F5EF589438921758DDD438E18858D8BD28E858C8AD28C7545
:0D01D8008400759850759110D2998F842283
:2008A0001B5B324A004D505320496E746572727570742054696D657220546573740A0A0D67
:2008C0000025642074656E746873206F662061207365636F6E64206861766520706173732C
:0608E0006564200A0D0012
:06004000E478FFF6D8FD94
:20001E007900E94400601B7A009008F1780175A200E493F2A308B8000205A2D9F4DAF2758B
:02003E00A2FF1F
:2001E500E50E450F60467A01E50E25E0F50EE50F334012F50FE582950EE583950F40030AB7
:2002050080E6C3E50F13F50FE50E13F50EC3E582950EF5F0E583950F4005F58385F082C367
:0D022500E50F13F50FE50E13F50EDAE122DB
:200046007800E84400600A790175A200E4F309D8FC7800E84400600C7900900001E4F0A3B6
:04006600D8FCD9FAEF
:20023200C00D85810D120078D00D2285823185833285F033E4F52EF52FF530850C34900282
:2002520032020328C00D85810DE50D24FBFF8F34E4F52EF52FF530E50D24FBF886310886DC
:0D02720032088633900232120328D00D228C
:20027F00AF82C024C025C02612028C8007C022C0238F8222158115811581052CE4B52C02A6
:20029F00052D22AF8274302FFF24C6500A74072FFF3001034307208F8202027FE582FFC49F
:2002BF00540FF582C0071202A2D007740F5FF5820202A285820E85270F8528108529118521
:2002DF002A12AA2B751320EA2AFAE512235401FF8A064EFAE50F250FF50FE51033F510E5B4
:2002FF001133F511E51233F512C3EA950E4008EAC3950EFA430F01D513CD850F2785102802
:20031F0085112985122A8A2B22858222858323852E24852F25853026E4F52CF52DAD31AED5
:20033F0032AF338D828E838FF012084AFC74012DF531E43EF5328F33ECFF700302082BBF66
:20035F0025028003020823C202C203C204C205C206C207C208C2097535007536007CFFAAF1
:20037F0031AB32AE338A828B838EF012084AFFA3AA82AB838A318B328E33BF25078F821230
:20039F00027F80998F3874D025385026E53824C64020BCFF12E53675F00AA4FD2F24D0F54F
:2003BF003670C2D20380BEEC75F00AA42F24D0FC80B3BF2E07BCFFAD7C0080A98F05BD619F
:2003DF0000400CED248540075307DFD2018002C201BF2002806DBF2B028063BF2D02805920
:2003FF00BF42028063BF43028068BF44030205CDBF46030205E3BF4803020384BF490302A0
:20041F0005CDBF4A03020384BF4C028040BF4F030205D4BF5003020562BF5302805CBF541F
:20043F0003020384BF55030205D9BF58030205DEBF5A030203840205E7D202020384D20455
:20045F00020384D205020384D207020384D20802038430070CE53414FE8E348E0187078002
:20047F0011E53424FEFE8E348E018705098706198D078F8212027F0205F0E53424FDFE8E92
:20049F00348E01870309870509870619198B278D288E298B828D838EF0C004120832AD829B
:2004BF00AE83D004BCFF028D0420022AC3ED95365024E536C39DF536AE368E031EEB6014F7
:2004DF00758220C006C005C00412027FD004D005D00680E68E368C068527828528838529BD
:2004FF00F012084AFCFF602F8E041EC374808CF063F08095F050208F82C006C00512027F25
:20051F00D005D006AA27AB28AC290ABA00010B8A278B288C2980C12002030205F0C3ED950D
:20053F003640030205F0E536C39DF536AE368E041EEC70030205EE758220C00612027FD05E
:20055F000680EBE53424FDFC8C348C01870209870309870419198A278B288C29AC29BC807C
:20057F000040047F438014BC600040047F50800BBC400040047F4980027F588F82C00712BD
:20059F00027F75823A12027F75823012027F75827812027FD007BF4902800BBF5002800638
:2005BF008528821202BB8527821202BB8023D20675350A801C753508801775350A80127552
:2005DF003510800DD20980098F8212027F80028E3630095CE53424FCFE8E348E018702092D
:2005FF0087030987040987061919198A278B288C298E2A7527E6752808752980852739855D
:20061F00283A85293B74012539FAE4353AFCAE3B8A278C288E29853982853A83853BF0120B
:20063F00084AFEFF700302033C8F8212027F80CCE535700302033C75371930072DE5341484
:20065F00FC8C348C01E7FA3395E0FBFCFE8A278B288C298E2A200666AA277B007C007E0011
:20067F008A278B288C298E2A8054300821E53424FCFE8E348E018702098703098704098795
:20069F00061919198A278B288C298E2A8030E53424FEFE8E348E01870409870619EE3395EF
:2006BF00E0FBFA8C278E288B298A2A200610AA27AB287C007E008A278B288C298E2A30069A
:2006DF0022E52A30E71BC3E49527FAE49528FBE49529FCE4952AFE8A278B288C298E2A800F
:2006FF0002C206D20AA9377E00752B00853582C006C0011202D2D001D006200A0BE52BC4DE
:20071F00FCE7FB4CF7198002A72B0EB20AE52745284529452A70D289378E05E53670037574
:20073F003601200324200221ED04FEAC36C3EE9C5015758220C006C005C00412027FD00489
:20075F00D005D0061C80E68C3630060E75822DC00512027FD00515368023ED602030040E59
:20077F0075822BC00512027FD0051536800F30050C758220C00512027FD00515362002221D
:20079F00AE368E041EC3ED9C502B3003047C3080027C208C82C006C00512027FD005D00607
:2007BF0080E0C3ED95365008E536C39DF536800775360080028E36A9378D068E051EED6058
:2007DF0026B20A200A0A09E7C4540FFD8D2B80078705740F5DF52B852B82C006C001120238
:2007FF00A2D001D00680D420020302033CAE368E051EED700302033C758220C00612027F31
:13081F00D00680EB8F8212027F02033C852C82852D832216
:0B08E6003C4E4F20464C4F41543E005A
:18083200AA82AB8312084A6003A380F8C3E5829AF582E5839BF583229A
:0D00110075813B12089CE582600302000E21
:1C084A0020F71430F6148883A88220F507E6A88375830022E280F7E49322E022BD
:20086600C2D5E58330E70DD2D5E4C39582F582E49583F583E50F30E70BE4C3950EF50EE4B8
:16088600950FF50F1201E530D50BE4C39582F582E49583F58322E1
:04089C00758200223F
:00000001FF
