:03000000020006F5
:20005F00E4F523F524F525F526F527F528F529F52A752BC8752C42752DFFF52EF52FF53069
:13007F00F531F532F533F534F535F536F537F5380200031D
:030003000200A751
:20009200AF8210990280FB8F992210980280FBE599859982227E007F0075840FC007C006B6
:2000B20012052D12057012054C12056212058E75840074C9C0E07414C0E07480C0E0120D31
:2000D2002B15811581158174CEC0E07414C0E07480C0E0120D2B158115811581D006D007CA
:2000F200758400E5907012120112AE82AF83C007C00612012BD006D0078ED28FD380E122BA
:2001120075BB00AFE874DF5FF5E843E810E5E830E5FB85BE8285BF8322120CACAC82AD8389
:20013200AEF0FFC007C006C005C004E4C0E0C0E0747AC0E07444C0E08C828D838EF0EF1253
:20015200133985823985833A85F03BF53CE58124FCF581C039C03AC03BC03C90096175F099
:2001720016743F120A2285823985833A85F03BF53CE58124FCF58174F2C0E07414C0E07465
:2001920080C0E0120D2B158115811581C039C03AC03BC03C74FAC0E07414C0E01205A1E564
:2001B2008124FAF581D004D005D006D0077407C0E074F0C0E0747FC0E07441C0E08C828D20
:2001D200838EF0EF121339AC82AD83AEF0FFE58124FCF5818C828D838EF0EF120C6B8582AD
:2001F2003D85833EC3E53D9410E53E6480948050157404C0E07415C0E07480C0E0120D2B42
:20021200158115811581C03DC03E7406C0E07415C0E07480C0E0120D2BE58124FBF581747F
:2002320009C0E07415C0E07480C0E0120D2B158115811581C035C036C037C03885238285B1
:2002520024838525F0E526120A22AC82AD83AEF0FFE58124FCF581C039C03AC03BC03C8C95
:20027200828D838EF0EF120BC9AC82AD83AEF0FFE58124FCF581C007C006C005C004E4C0D6
:20029200E0C0E07480C0E0743FC0E08535828536838537F0E538120BC9A882A983AAF0FBD1
:2002B200E58124FCF581D004D005D006D007C003C002C001C000C000C001C002C0038C82C0
:2002D2008D838EF0EF12133985822385832485F025F526E58124FCF58185278285288312BA
:2002F2000C9FAC82AD83AEF0FFC035C036C037C0388C828D838EF0EF120A2285823F858355
:200312004085F041F542E58124FCF581853D82853E83120C9FAC82AD83AEF0FFC004C005D7
:20033200C006C007853F828540838541F0E542120BC9AC82AD83AEF0FFE58124FCF581D006
:2003520000D001D002D003C003C002C001C000C000C001C002C0038C828D838EF0EF121359
:2003720039AC82AD83AEF0FFE58124FCF5818C828D838EF0EF120C6B858227858328D000F9
:20039200D001D002D003883589368A378B38C029C02AC02BC02C853982853A83853BF0E514
:2003B2003C120B99AF82E58124FCF581EF6012853929853A2A853B2B853C2C853D2D853E51
:2003D2002EC02FC030C031C032853982853A83853BF0E53C120B69AF82E58124FCF581EF26
:2003F200601285392F853A30853B31853C32853D33853E34C023C024C025C02674FAC0E02D
:200412007414C0E01205A1E58124FAF581C3E5279410E5286480948050157404C0E0741572
:20043200C0E07480C0E0120D2B158115811581C027C0287410C0E07415C0E07480C0E012A8
:200452000D2BE58124FBF5817416C0E07415C0E07480C0E0120D2B158115811581C029C0BB
:200472002AC02BC02C74FAC0E07414C0E01205A1E58124FAF581C3E52D9410E52E6480947D
:200492008050157404C0E07415C0E07480C0E0120D2B158115811581C02DC02E7406C0E08F
:2004B2007415C0E07480C0E0120D2BE58124FBF581741DC0E07415C0E07480C0E0120D2BF0
:2004D200158115811581C02FC030C031C0327424C0E07415C0E01205A1E58124FAF581C3B0
:2004F200E5339410E5346480948050157404C0E07415C0E07480C0E0120D2B158115811558
:2005120081C033C0347406C0E07415C0E07480C0E0120D2BE58124FBF5812275840F758C1A
:20053200677E007F011EBEFF011FEE4F70F7E58C30E7FB759701758A002275840075C804BA
:2005520075C90875CDFF75CC7075CA7075CBFF22758400D2CA759850759115D299227584AE
:200572000F75FFDE75FFAD75E10475E34075A40175800275A500759001D2AF2275840075B3
:0F059200D10375BA0075BC4075E88075D480221E
:2014C9001B5B324A0043757272656E743A200A0D417665726167653A200A0D4D696E3A2013
:2014E9000A0D4D61783A0A0D001B5B313B3130480025372E36662C20307800300025580003
:201509001B5B323B3948002558200A0D001B5B333B3548001B5B343B35480025372E3666C1
:041529002C307800EA
:2005A100C00E85810EE50E24FDF8868318868218E493A3B42577C200C201C202C203C204CD
:2005C100C20579087700C206E493A324C64017240A50157005B50802D205D204FAE775F07E
:2005E1000AA42AF780E2240A2430B46C04D20080D7B46804D20180D0B47303020639B46434
:2006010006120913020695B475061209130206B5B4630518E6188017B47803020674B46660
:20062100030207C9B42E0679097700809B6006120A050205B1020A1FC083C08286F01886E5
:200641008318868218300419C205C082C0831213FC6007A31508E50870F41209F0D083D07E
:20066100821213FC6006A3120A0580F5D082D0830205B112068C20010C12068C300006121D
:20068100068C12068C120A170205B1E61209F5E6180209F6ED30E71CD203E9F42401F92033
:2006A1000112EAF43400FA30000AEBF43400FBECF43400FC200110300008EB7024EC70215D
:2006C100C200EA701CD201E97017200614300409E508600515081209F07430120A050205E1
:2006E100B1C082C08312092D300460790A30001DEB54F0703619EB540F703019EA54F07084
:200701002A19EA540F702419EF54F0701E790520010BEF540F701419EE54F0700E7903EE27
:20072100540F700719ED54F0700119E508A203994019F508C003C002C007C006C005120997
:20074100F0D005D006D007D002D003300319C003C002C007C006C005742D120A05D005D0F7
:2007610006D007D002D00320014030002CC005C006C0078A82EBF5831209F5E5831209F6EF
:20078100E5821209F5E5821209F6D0E0F5821209F5E582D083D08280058D828E83EF120977
:2007A100F6E5831209F5E58380038D82EE1209F6E5821209F5E5821209F6120A17D083D08C
:2007C10082300601220205B130040EE508D39509F50850287508008023E6547FFA188603FC
:2007E10008AE82AF839016F97D07E4932BA3E4933A5003A3DDF48D098E828F83C00012081C
:20080100F5C082C083EFB47E02801940112482FDC3EA33FAEB33FBEC33FCDDF48006F42430
:200821007F120AF375F01BE4F8FFFEFD90168DE933F9EA33FAEB33FBEC33FC5017E4932D35
:20084100D4FD7401933ED4FE7402933FD4FF74039338D4F8A3A3A3A3D5F0D4E47C50FBFABB
:20086100F9E509232354FC8883120AF3ED29D4F50DEE3AD4F50CEF3BD4F50BE5833CD4F58C
:200881000A92D5D083D082D0001208F5C000C3749E9F5005D0000205C9C082120AF3D08296
:2008A10030D50FE92401F9E43AFAE43BFBE43CFC40E2D2061206B520040CE5096008120867
:2008C100E57003D509F4E5096015742E120A057800D20208E81208E51209F6E8B509F4D011
:2008E100000205B114C31392D5240AF9E720D501C4540F22E618F9E618FC33E9339203FFCD
:200901006003430480E618FBE618FA7900C201D20022E6F9FD18200112AA01E6F918300092
:200921000AAC02AB01E6FA18E6F91822E975F06484FE740AC5F084C445F0FD30010122EA22
:20094100540FF990152D932DD4FDE94410933ED4FEEAC4540FF990154D932DD4FDE944102D
:20096100933ED4FEE94420933400D4FF20000122EB540FF990157D932DD4FDE94410933EA1
:20098100D4FEE94420933FD4FFE43400FAEBC4540FF99015AD932DD4FDE94410933ED4FEB2
:2009A100E94420933FD4FFE94430933AD4FAEC540FF99015ED7B001209C3ECC4540FF9907D
:2009C100163D932DD4FDE94410933ED4FEE94420933FD4FFE94430933AD4FAE94440933B2D
:2009E100D4FB2274203005027430120A051508E50870F022C4540F7003300219D20224907C
:200A0100D43440D4C083C082C000F582120092D000D082D083222002FC7430020A05D00E11
:010A210022B2
:20152D00005612682480369248046016722884400002050710121517202325283033353886
:20154D000096928884807672686460565248444000408122630445862768095091327314FB
:20156D000000000101020202030304040405050600367208448016528824609632680440D8
:20158D0000551066217632874298530864197530000613192632394552586572788591981D
:2015AD000076522804805632088460361288644000857157432814008671574329140086A2
:2015CD000004091419242934384348535863687200010203040506070809101112131415FC
:2015ED000016324864809612284460769208244000724416886032057749219365381082F4
:20160D00007755331088664421997754321088650016335067830017345067840118345121
:20162D00000000000000010101010101020202020056126824803692480460167228844033
:20164D00005409631872278136914500540963180043873074176104489135792266095352
:20166D00006836057342107947158452218958260002050810131618212426293234374051
:20168D0000000050000000250000501200002506005012030025560150127800250639001C
:2016AD00125319005676090028880400144402000722010004610000523000002615000070
:2016CD00630700008103000091010000950000004800000024000000120000000600000064
:1A16ED000300000001000000010000007DC5DDC334C2E0BE38BD86BBE4B995
:200A2200120AC5BC0003020CD9EF60FA30D502B2D1E583B4FF03020CEFE582B4FF03020C14
:200A4200EF258340072482400B020CD92483145003020CEFF582EA8DF0A4A8F0EA8EF0A4AD
:200A620028F8E435F0F9EB8DF0A428E935F0F9E433CA8FF0A429F9EA35F0FAEBF88EF0A4E3
:200A820029F9EA35F0FAE433FBEC8DF0A429F9EA35F0FAE43BFBE88FF0A42AFAEB35F0FB8B
:200AA200E433CCFD8EF0A42AFAEB35F0FBE43CFCED8FF0A42BFBEC35F0FC20E703120B3647
:030AC200020CB86B
:200AC500AA82AB83A2F73392D1F5826002D2F7ACF0E58124F9F8E6FD08E6FE0886F008E694
:0E0AE500A2F73392D5F5836002D2F7AFF0226C
:06003500E478FFF6D8FD9F
:200AF3006040F82582500274FFF582E824F8501ECCCBCAF9E4CC24F85014CBCAF9E4CB240B
:200B1300F8500BCAF9E4CA24F8500379002224086010F8C3EC13FCEB13FBEA13FAE913F9BD
:030B3300D8F122D4
:200B36007804EC7011E58224F8500AF582E4C9CACBFCD8EF22EC7820058220E713D58201BE
:130B560022C3E933F9EA33FAEB33FBEC33FCD8EA158222CC
:200013007900E94400601B7A00901712780175A200E493F2A308B8000205A2D9F4DAF27566
:02003300A2FF2A
:200B6900FFA8811818120C40D2D133E6400730E70B7582012220E70675820022C2D1120CA0
:100B890022E97003F5822230D101B3E433F58222E0
:200B9900FFA8811818120C40D2D133E6400730E70B7582002220E70675820122C2D1120C70
:100BB90022E97003F5822220D101B3E433F58222C0
:20003B007800E84400600A790175A200E4F309D8FC7800E84400600C7900900001E4F0A3C1
:04005B00D8FCD9FAFA
:200BC900120AC57900E583B58202800D5003121307E583C39582120AF3E5D0C465D020E105
:200BE90017EA2DFAEB3EFBEC3FFC50097401120AF3EC4480FC020CB8C3EA9DFAEB9EFBEC76
:190C09009FFC500FC3E499F9E49AFAE49BFBE49CFCB2D1120B36020CB895
:200C22007901AA82E68F82B5821318E6B5F00E18E6B5830918E68A82B58202790022B480C9
:200C42000FE5F0700AE5837006E58270027F00EFB6801518B6001018B6000B18B600060831
:090C6200080876002208080822A7
:200C6B00121458700AE582458345F0700122E430D112F4700BE5F0F47006E58330E7012233
:140C8B0090800022700AE5F07006E58320E70122907FFF229C
:0D0C9F00AC83AB827A007900748E021421C0
:0C0CAC00E4AC83AB82FAF9748E02144EA3
:200CB800B98003EA13B34010EA2401FAE43BFBE43CFC50047C800582BC000EBB000BBA0080
:200CD80008E4F5F0F583F58222A2D1E582138CF092F78B838A8222E4F583F58275F080F440
:0F0CF800A2D11322E4F583F58275F0C0747F2238
:200D0700C00E85810E120092D00E2285825285835385F054E4F54FF550F551850F55900D90
:200D270007020DFDC00E85810EE50E24FBFF8F55E4F54FF550F551E50E24FBF8865208869F
:0D0D470053088654900D07120DFDD00E22AA
:200D5400AF82C045C046C047120D618007C043C0448F8222158115811581054DE4B54D02FF
:200D7400054E22AF8274302FFF24C6500A74072FFF3007034307208F82020D54E582FFC4B8
:200D9400540FF582C007120D77D007740F5FF582020D77858210854811854912854A138516
:200DB4004B14AA4C751520EA2AFAE514235401FF8A064EFAE5112511F511E51233F512E582
:200DD4001333F513E51433F514C3EA95104008EAC39510FA431101D515CD851148851249CC
:200DF40085134A85144B8A4C22858243858344854F45855046855147E4F54DF54EAD52AE24
:200E140053AF548D828E838FF01213FCFC74012DF552E43EF5538F54ECFF7003021300BF44
:200E3400250280030212F8C208C209C20AC20BC20CC20DC20EC20F7556007557007CFFAAC0
:200E540052AB53AE548A828B838EF01213FCFFA3AA82AB838A528B538E54BF25078F8212CD
:200E74000D5480998F5974D025595026E55924C64020BCFF12E55775F00AA4FD2F24D0F50B
:200E94005770C2D20980BEEC75F00AA42F24D0FC80B3BF2E07BCFFAD7C0080A98F05BD6198
:200EB40000400CED248540075307DFD2078002C207BF2002806DBF2B028063BF2D02805934
:200ED400BF42028063BF43028068BF44030210A2BF46030210B8BF4803020E59BF49030220
:200EF40010A2BF4A03020E59BF4C028040BF4F030210A9BF5003021037BF5302805CBF54C0
:200F140003020E59BF55030210AEBF58030210B3BF5A03020E590210BCD208020E59D20A29
:200F3400020E59D20B020E59D20D020E59D20E020E59300D0CE55514FE8E558E0187078048
:200F540011E55524FEFE8E558E018705098706198D078F82120D540210C5E55524FDFE8E8F
:200F7400558E01870309870509870619198B488D498E4A8B828D838EF0C004121321AD823D
:200F9400AE83D004BCFF028D0420082AC3ED95575024E557C39DF557AE578E031EEB60148D
:200FB400758220C006C005C004120D54D004D005D00680E68E578C06854882854983854A79
:200FD400F01213FCFCFF602F8E041EC374808CF063F08095F050208F82C006C005120D54A8
:200FF400D005D006AA48AB49AC4A0ABA00010B8A488B498C4A80C12008030210C5C3ED9582
:201014005740030210C5E557C39DF557AE578E041EEC70030210C3758220C006120D54D05A
:201034000680EBE55524FDFC8C558C01870209870309870419198A488B498C4AAC4ABC80D6
:201054000040047F438014BC600040047F50800BBC400040047F4980027F588F82C00712DD
:201074000D5475823A120D54758230120D54758278120D54D007BF4902800BBF50028006D8
:20109400854982120D90854882120D908023D20C75560A801C755608801775560A80127507
:2010B4005610800DD20F80098F82120D5480028E57300F5CE55524FCFE8E558E01870209DD
:2010D40087030987040987061919198A488B498C4A8E4B754807754917754A8085485A8524
:2010F400495B854A5C7401255AFAE4355BFCAE5C8A488C498E4A855A82855B83855CF0127F
:2011140013FCFEFF7003020E118F82120D5480CCE5567003020E1175581B300D2DE55514DC
:20113400FC8C558C01E7FA3395E0FBFCFE8A488B498C4A8E4B200C66AA487B007C007E0065
:201154008A488B498C4A8E4B8054300E21E55524FCFE8E558E0187020987030987040987E9
:20117400061919198A488B498C4A8E4B8030E55524FEFE8E558E01870409870619EE339549
:20119400E0FBFA8C488E498B4A8A4B200C10AA48AB497C007E008A488B498C4A8E4B300C64
:2011B40022E54B30E71BC3E49548FAE49549FBE4954AFCE4954BFE8A488B498C4A8E4B8006
:2011D40002C20CD210A9587E00754C00855682C006C001120DA7D001D00620100BE54CC488
:2011F400FCE7FB4CF7198002A74C0EB210E5484549454A454B70D289588E05E557700375A8
:201214005701200924200821ED04FEAC57C3EE9C5015758220C006C005C004120D54D0047B
:20123400D005D0061C80E68C57300C0E75822DC005120D54D00515578023ED6020300A0E4B
:2012540075822BC005120D54D0051557800F300B0C758220C005120D54D00515572008222F
:20127400AE578E041EC3ED9C502B3009047C3080027C208C82C006C005120D54D005D00620
:2012940080E0C3ED95575008E557C39DF557800775570080028E57A9588D068E051EED60B2
:2012B40026B21020100A09E7C4540FFD8D4C80078705740F5DF54C854C82C006C001120DDE
:2012D40077D001D00680D4200803020E11AE578E051EED7003020E11758220C006120D54B5
:1312F400D00680EB8F82120D54020E11854D82854E832235
:0B1707003C4E4F20464C4F41543E002A
:1A130700E582C583F582A2D133A2D592D11392D5ECCFFCEBCEFBEACDFA226E
:18132100AA82AB831213FC6003A380F8C3E5829AF582E5839BF58322E3
:20133900120AC530D502B2D1BF0009BC0003020CFC020CEFBC0003020CD9E583B4FF0BE5EA
:2013590082B4FF03020CFC020CD9E582B4FF03020CEFC395835007247F400B020CD9248086
:20137900145003020CEFF582C3ED9AEE9BEF9C40111582C3EA33F9EB33FAEC33FBE433FC15
:201399008005E4CCCBCAF9C08275F019C3E99DEA9EEB9FEC9400D5F002802D400EE99DF995
:2013B900EA9EFAEB9FFBEC9400FCC3B3E833F8E58233F582E58333F583C3E933F9EA33FAF5
:2013D900EB33FBEC33FC80C4B3E4F938FAE43582FBE43583FCD082500405827C80120B3610
:0313F900020CD013
:0D00060075815C1214B3E5826003020003F3
:1C13FC0020F71430F6148883A88220F507E6A88375830022E280F7E49322E02200
:20141800FCABF0AA83A982749EF582C2D1EC30E716D2D1E9F42401F9EAF43400FAEBF434D3
:0D14380000FBECF43400FC120B36020CB883
:13144500FCABF0AA83A982749EC2D1F582120B36020CB870
:201458001214B7C3749E958240397900120AF330D126E9F42401F582EAF43400F583EBF4A1
:201478003400F5F0ECF43400700AE582458345F0700122E430E70F22EC20E71489828A836B
:1B1498008BF02230D10AE4F582F583F5F074802274FFF582F583F5F0747F2267
:0414B300758200221C
:1214B700AA82AB83A2F73392D1F5826002D2F7ACF0223A
:00000001FF
