:03000000020006F5
:03005F0002000399
:0300030002007781
:20006200AF8210990280FB8F992210980280FBE5998599822275840F1200C1120120120058
:20008200E01201087584007584011098028007AF998F821200AA75840010980280E9AF99D6
:2000A2008F821200AA80E022AF8275840110990280FB8F9975840010990280FB8F99227598
:2000C200840F758C677E007F011EBEFF011FEE4F70F7E58C30E7FB759701758A00227584DC
:2000E20000758840758920758E10758DA0858D8B75840075C80475C90875CDFF75CC70756A
:20010200CA7075CBFF22758400D2CA759850759115D299D28E758401759850D2992275848D
:160122000F75A40575800A75FFDE75FFADD2AF75E10475E344228F
:06003500E478FFF6D8FD9F
:200013007900E94400601B7A0090013C780175A200E493F2A308B8000205A2D9F4DAF27552
:02003300A2FF2A
:20003B007800E84400600A790175A200E4F309D8FC7800E84400600C7900900001E4F0A3C1
:04005B00D8FCD9FAFA
:0D000600758107120138E5826003020003D6
:0401380075820022AA
:00000001FF
