:03000000020006F5
:10005F00E4F508F509F50AF50BF50CF50D020003AB
:0300030002008474
:20006F00AF8210990280FB8F992210980280FBE5998599822275840F1201761201B91201FB
:20008F00951201AB1201D17584007425C0E07408C0E07480C0E0120211158115811581123F
:2000AF00015DAE82AF83C3EE9404EF64809480E433FD3395E0FC8D828C83C007C0061200CC
:2000CF00F0AC82AD83D006D0077584008CD28DD385080A85090B8E088F098C0C8D0D80BF90
:2000EF0022AE82AF8375840343C30875C10075C2288F928E917F028F06DEFE850B92850AEB
:20010F00917F028F06DEFE75C1C475C21E8509928508917F028F06DEFE75C10075C22A85B2
:20012F000D92850C917F02DFFE7F00EF30E70B43C320E5C320E5FB0F80F1758403AF967EF4
:20014F0000AC957D00EC4EF582ED4FF5832275BB00AFE874DF5FF5E843E810E5E830E5FBDD
:20016F0085BE8285BF832275840F758C677E007F011EBEFF011FEE4F70F7E58C30E7FB75BD
:20018F009701758A002275840075C80475C90875CDFF75CC7075CA7075CBFF22758400D24A
:2001AF00CA759850759115D2992275840F75FFDE75FFAD75E10475E34075A401758002D211
:1E01CF00AF2275840075D10375D48075BA0075BC2075E88075840375C31275840F2269
:050825001B5B324A00DC
:06003500E478FFF6D8FD9F
:200013007900E94400601B7A00900835780175A200E493F2A308B8000205A2D9F4DAF27552
:02003300A2FF2A
:20003B007800E84400600A790175A200E4F309D8FC7800E84400600C7900900001E4F0A3C1
:04005B00D8FCD9FAFA
:2001ED00C00F85810F12006FD00F2285823185833285F033E4F52EF52FF530850E349001CA
:20020D00ED0202E3C00F85810FE50F24FBFF8F34E4F52EF52FF530E50F24FBF886310886A4
:0D022D00320886339001ED1202E3D00F225B
:20023A00AF82C024C025C0261202478007C022C0238F8222158115811581052CE4B52C0230
:20025A00052D22AF8274302FFF24C6500A74072FFF3000034307208F8202023AE582FFC42A
:20027A00540FF582C00712025DD007740F5FF58202025D85821085271185281285291385E8
:20029A002A14AA2B751520EA2AFAE514235401FF8A064EFAE5112511F511E51233F512E5E9
:2002BA001333F513E51433F514C3EA95104008EAC39510FA431101D515CD85112785122833
:2002DA0085132985142A8A2B22858222858323852E24852F25853026E4F52CF52DAD31AE17
:2002FA0032AF338D828E838FF0120805FC74012DF531E43EF5328F33ECFF70030207E6BF37
:20031A00250280030207DEC201C202C203C204C205C206C207C2087535007536007CFFAA84
:20033A0031AB32AE338A828B838EF0120805FFA3AA82AB838A318B328E33BF25078F8212BA
:20035A00023A80998F3874D025385026E53824C64020BCFF12E53675F00AA4FD2F24D0F5D9
:20037A003670C2D20280BEEC75F00AA42F24D0FC80B3BF2E07BCFFAD7C0080A98F05BD61E5
:20039A0000400CED248540075307DFD2008002C200BF2002806DBF2B028063BF2D02805967
:2003BA00BF42028063BF43028068BF4403020588BF460302059EBF480302033FBF490302B4
:2003DA000588BF4A0302033FBF4C028040BF4F0302058FBF500302051DBF5302805CBF5479
:2003FA000302033FBF5503020594BF5803020599BF5A0302033F0205A2D20102033FD2033B
:20041A0002033FD20402033FD20602033FD20702033F30060CE53414FE8E348E018707805F
:20043A0011E53424FEFE8E348E018705098706198D078F8212023A0205ABE53424FDFE8E61
:20045A00348E01870309870509870619198B278D288E298B828D838EF0C0041207EDAD8226
:20047A00AE83D004BCFF028D0420012AC3ED95365024E536C39DF536AE368E031EEB60143D
:20049A00758220C006C005C00412023AD004D005D00680E68E368C06852782852883852947
:2004BA00F0120805FCFF602F8E041EC374808CF063F08095F050208F82C006C00512023AF4
:2004DA00D005D006AA27AB28AC290ABA00010B8A278B288C2980C12001030205ABC3ED9599
:2004FA003640030205ABE536C39DF536AE368E041EEC70030205A9758220C00612023AD073
:20051A000680EBE53424FDFC8C348C01870209870309870419198A278B288C29AC29BC80C1
:20053A000040047F438014BC600040047F50800BBC400040047F4980027F588F82C0071202
:20055A00023A75823A12023A75823012023A75827812023AD007BF4902800BBF5002800691
:20057A008528821202768527821202768023D20575350A801C753508801775350A80127522
:20059A003510800DD20880098F8212023A80028E3630085CE53424FCFE8E348E01870209B9
:2005BA0087030987040987061919198A278B288C298E2A75272A752808752980852739855E
:2005DA00283A85293B74012539FAE4353AFCAE3B8A278C288E29853982853A83853BF01251
:2005FA000805FEFF70030202F78F8212023A80CCE53570030202F775371B30062DE53414DF
:20061A00FC8C348C01E7FA3395E0FBFCFE8A278B288C298E2A200566AA277B007C007E0057
:20063A008A278B288C298E2A8054300721E53424FCFE8E348E0187020987030987040987DB
:20065A00061919198A278B288C298E2A8030E53424FEFE8E348E01870409870619EE339534
:20067A00E0FBFA8C278E288B298A2A200510AA27AB287C007E008A278B288C298E2A3005E1
:20069A0022E52A30E71BC3E49527FAE49528FBE49529FCE4952AFE8A278B288C298E2A8054
:2006BA0002C205D209A9377E00752B00853582C006C00112028DD001D00620090BE52BC46B
:2006DA00FCE7FB4CF7198002A72B0EB209E52745284529452A70D289378E05E536700375BB
:2006FA003601200224200121ED04FEAC36C3EE9C5015758220C006C005C00412023AD00416
:20071A00D005D0061C80E68C3630050E75822DC00512023AD00515368023ED602030030EE5
:20073A0075822BC00512023AD0051536800F30040C758220C00512023AD0051536200122EE
:20075A00AE368E041EC3ED9C502B3002047C3080027C208C82C006C00512023AD005D00692
:20077A0080E0C3ED95365008E536C39DF536800775360080028E36A9378D068E051EED609D
:20079A0026B20920090A09E7C4540FFD8D2B80078705740F5DF52B852B82C006C00112027F
:2007BA005DD001D00680D42001030202F7AE368E051EED70030202F7758220C00612023A8D
:1307DA00D00680EB8F8212023A0202F7852C82852D8322E7
:0B082A003C4E4F20464C4F41543E0016
:1807ED00AA82AB831208056003A380F8C3E5829AF582E5839BF5832225
:0D00060075813B120821E5826003020003B2
:1C08050020F71430F6148883A88220F507E6A88375830022E280F7E49322E02202
:0408210075820022BA
:00000001FF
