:06000000020009020108E4
:05006200C200020006CF
:0300060002007C79
:20006700AF8210990280FB8F992210980280FBE5998599822275840F12010B12012A1201FD
:2000870080758400D288C28C74E2C0E07407C0E07480C0E01201CE15811581158174E7C0D5
:2000A700E07407C0E07480C0E01201CE15811581158174ECC0E07407C0E07480C0E0120145
:2000C700CE1581158115817409C0E07408C0E07480C0E01201CE15811581158175840FD23F
:2000E700A87584003000FD743BC0E07408C0E07480C0E01201CE158115811581C20080E463
:2001070022D20032AF8475840F75FFDE75FFADD2AF75E10475E20475E34075A40175800621
:200127008F8422AF8475840F758C677D007E011DBDFF011EED4E70F7E58C30E7FB759701BA
:20014700758A0075840F75890475840075B71075840F438901758D04758F01758E097D00F1
:200167007E011DBDFF011EED4E70F7438902E58930E4FB7597028F8422AF84758400AE896E
:20018700740F5EF589438920758DE5438E10858D8BD28E758400759850759110D299C28C23
:0301A7008F842220
:2007E2001B5B324A001B5B306D004D505320496E746572727570742053776974636820540F
:200802006573740A0A0D0047726F756E64202F494E5430206F6E2050302E3220746F206709
:20082200656E657261746520616E20696E746572727570742E0A0A0D00546865205075730E
:2008420068627574746F6E20486173204265656E205072657373656420212121210A0D000B
:06003800E478FFF6D8FD9C
:200016007900E94400601B7A0090086D780175A200E493F2A308B8000205A2D9F4DAF27517
:02003600A2FF27
:20003E007800E84400600A790175A200E4F309D8FC7800E84400600C7900900001E4F0A3BE
:04005E00D8FCD9FAF7
:2001AA00C009858109120067D0092285823185833285F033E4F52EF52FF53085083490012D
:2001CA00AA0202A0C009858109E50924FBFF8F34E4F52EF52FF530E50924FBF88631088686
:0D01EA00320886339001AA1202A0D009222B
:2001F700AF82C024C025C0261202048007C022C0238F8222158115811581052CE4B52C02B7
:20021700052D22AF8274302FFF24C6500A74072FFF3001034307208F820201F7E582FFC4B0
:20023700540FF582C00712021AD007740F5FF58202021A85820A85270B85280C85290D85C9
:200257002A0EAA2B750F20EA2AFAE50E235401FF8A064EFAE50B250BF50BE50C33F50CE55C
:200277000D33F50DE50E33F50EC3EA950A4008EAC3950AFA430B01D50FCD850B27850C28B2
:20029700850D29850E2A8A2B22858222858323852E24852F25853026E4F52CF52DAD31AE66
:2002B70032AF338D828E838FF01207C2FC74012DF531E43EF5328F33ECFF70030207A3BF01
:2002D7002502800302079BC202C203C204C205C206C207C208C2097535007536007CFFAA03
:2002F70031AB32AE338A828B838EF01207C2FFA3AA82AB838A318B328E33BF25078F821242
:2003170001F780998F3874D025385026E53824C64020BCFF12E53675F00AA4FD2F24D0F560
:200337003670C2D20380BEEC75F00AA42F24D0FC80B3BF2E07BCFFAD7C0080A98F05BD6127
:2003570000400CED248540075307DFD2018002C201BF2002806DBF2B028063BF2D028059A8
:20037700BF42028063BF43028068BF4403020545BF460302055BBF48030202FCBF490302C1
:200397000545BF4A030202FCBF4C028040BF4F0302054CBF50030204DABF5302805CBF54CA
:2003B700030202FCBF5503020551BF5803020556BF5A030202FC02055FD2020202FCD20411
:2003D7000202FCD2050202FCD2070202FCD2080202FC30070CE53414FE8E348E01870780AF
:2003F70011E53424FEFE8E348E018705098706198D078F821201F7020568E53424FDFE8E2C
:20041700348E01870309870509870619198B278D288E298B828D838EF0C0041207AAAD82AC
:20043700AE83D004BCFF028D0420022AC3ED95365024E536C39DF536AE368E031EEB60147F
:20045700758220C006C005C0041201F7D004D005D00680E68E368C068527828528838529CE
:20047700F01207C2FCFF602F8E041EC374808CF063F08095F050208F82C006C0051201F7BF
:20049700D005D006AA27AB28AC290ABA00010B8A278B288C2980C1200203020568C3ED951E
:2004B700364003020568E536C39DF536AE368E041EEC7003020566758220C0061201F7D080
:2004D7000680EBE53424FDFC8C348C01870209870309870419198A278B288C29AC29BC8005
:2004F7000040047F438014BC600040047F50800BBC400040047F4980027F588F82C0071246
:2005170001F775823A1201F77582301201F77582781201F7D007BF4902800BBF50028006E4
:200537008528821202338527821202338023D20675350A801C753508801775350A801275EA
:200557003510800DD20980098F821201F780028E3630095CE53424FCFE8E348E018702093E
:2005770087030987040987061919198A278B288C298E2A7527627528087529808527398569
:20059700283A85293B74012539FAE4353AFCAE3B8A278C288E29853982853A83853BF01294
:2005B70007C2FEFF70030202B48F821201F780CCE53570030202B475371530072DE5341435
:2005D700FC8C348C01E7FA3395E0FBFCFE8A278B288C298E2A200666AA277B007C007E009A
:2005F7008A278B288C298E2A8054300821E53424FCFE8E348E01870209870309870409871E
:20061700061919198A278B288C298E2A8030E53424FEFE8E348E01870409870619EE339577
:20063700E0FBFA8C278E288B298A2A200610AA27AB287C007E008A278B288C298E2A300622
:2006570022E52A30E71BC3E49527FAE49528FBE49529FCE4952AFE8A278B288C298E2A8097
:2006770002C206D20AA9377E00752B00853582C006C00112024AD001D006200A0BE52BC4EE
:20069700FCE7FB4CF7198002A72B0EB20AE52745284529452A70D289378E05E536700375FD
:2006B7003601200324200221ED04FEAC36C3EE9C5015758220C006C005C0041201F7D0049B
:2006D700D005D0061C80E68C3630060E75822DC0051201F7D00515368023ED602030040E6B
:2006F70075822BC0051201F7D0051536800F30050C758220C0051201F7D0051536200222B8
:20071700AE368E041EC3ED9C502B3003047C3080027C208C82C006C0051201F7D005D00618
:2007370080E0C3ED95365008E536C39DF536800775360080028E36A9378D068E051EED60E0
:2007570026B20A200A0A09E7C4540FFD8D2B80078705740F5DF52B852B82C006C0011202C0
:200777001AD001D00680D42002030202B4AE368E051EED70030202B4758220C0061201F7DC
:13079700D00680EB8F821201F70202B4852C82852D8322B1
:0B0862003C4E4F20464C4F41543E00DE
:1807AA00AA82AB831207C26003A380F8C3E5829AF582E5839BF58322AC
:0D00090075813B1207DEE5826003020006F0
:1C07C20020F71430F6148883A88220F507E6A88375830022E280F7E49322E02246
:0407DE0075820022FE
:00000001FF
