:040000000200A9321F
:01000B0032C2
:0100130032BA
:01001B0032B2
:03002300020130A7
:01002B0032A2
:01003300329A
:01003B003292
:01004300328A
:01004B003282
:01005300327A
:01005B003272
:01006300326A
:01006B003262
:01007300325A
:01007B003252
:01008300324A
:01008B003242
:01009300323A
:01009B003232
:0300A30002015304
:030102000200A652
:0300A6000201054F
:2001050075840F1201741201D31201931201BB758400D2AC43E7407584012098FA2099F7B4
:2001250075840020ACF1D2AC80ED22C007C0D075D00030980DAF998F99C2987584018F999A
:20014500C2AC1099028002C2ACD0D0D00732C007C0D075D00030980BAF99C2987584008F4F
:2001650099D2AC1099028002D2ACD0D0D0073275840F758C677E007F011EBEFF011FEE4F69
:2001850070F7E58C30E7FB759701758A0022758400758840758920758E10758DA0858D8B9C
:2001A50075840075C80475C90875CDFF75CC7075CA7075CBFF22758400D2CA7598507591C0
:2001C50015D299D28E758401759850D2992275840F75A40575800A75FFDE75FFADD2AF75C8
:0601E500E10475E3442271
:0600D800E478FFF6D8FDFC
:2000B6007900E94400601B7A009001EF780175A200E493F2A308B8000205A2D9F4DAF275FC
:0200D600A2FF87
:2000DE007800E84400600A790175A200E4F309D8FC7800E84400600C7900900001E4F0A31E
:0400FE00D8FCD9FA57
:0D00A9007581071201EBE58260030200A6DD
:0401EB0075820022F7
:00000001FF
