:040000000200A9321F
:01000B0032C2
:0100130032BA
:01001B0032B2
:03002300020201D5
:01002B0032A2
:01003300329A
:01003B003292
:01004300328A
:01004B003282
:01005300327A
:01005B003272
:01006300326A
:01006B003262
:01007300325A
:01007B003252
:01008300324A
:01008B003242
:01009300323A
:01009B003232
:0300A30002021046
:030102000200A652
:0300A60002011A3A
:20010500AF8210990280FB8F992210980280FBE5998599822275FFDE75FFAD12021F12021A
:200125006D1202331202C37584007401B50D06E4B50E028002804E758400859908E508FEF6
:200145003395E0FFC006C0077403C0E07409C0E07480C0E01202EFE58124FBF581758401A6
:20016500E508FE3395E0FFC006C0077403C0E07409C0E07480C0E01202EFE58124FBF58195
:20018500E4F50DF50E7401B50B06E4B50C028002804E758401859908E508FE3395E0FFC0CD
:2001A50006C0077403C0E07409C0E07480C0E01202EFE58124FBF581758400E508FE3395FB
:2001C500E0FFC006C0077403C0E07409C0E07480C0E01202EFE58124FBF581E4F50BF50C03
:2001E500E509450A600AD2ACE4F509F50A02012FC2AC750901750A0002012F2275840030D9
:200205009808750D01750E00C29832758401309808750B01750C00C29832AF8475840F759F
:20022500A4057580FA75E10475E3448F8422AF84758400758DA0858D8B758920758E10D288
:200245008E758400759870759115D299758401759810D29975840075CBFF75CA7075C90860
:2002650075C804D2CA8F8422AF8475840F758C677D007E011DBDFF011EED4E70F7E58C308D
:20028500E7FB759701758A0075840F75890475840075B71075840F438901758D01758F014F
:2002A500758E017D007E011DBDFF011EED4E70F7438902E58930E4FB7597028F8422D2AF90
:0602C500D2AC75E74022F7
:0309030025630069
:0600D800E478FFF6D8FDFC
:2000B6007900E94400601B7A00900911780175A200E493F2A308B8000205A2D9F4DAF275D2
:0200D600A2FF87
:2000DE007800E84400600A790175A200E4F309D8FC7800E84400600C7900900001E4F0A31E
:0400FE00D8FCD9FA57
:2002CB00C012858112120105D0122285823185833285F033E4F52EF52FF530851134900247
:2002EB00CB0203C1C012858112E51224FBFF8F34E4F52EF52FF530E51224FBF886310886FD
:0D030B00320886339002CB1203C1D01222BB
:20031800AF82C024C025C0261203258007C022C0238F8222158115811581052CE4B52C0272
:20033800052D22AF8274302FFF24C6500A74072FFF3000034307208F82020318E582FFC46C
:20035800540FF582C00712033BD007740F5FF58202033B858213852714852815852916853F
:200378002A17AA2B751820EA2AFAE517235401FF8A064EFAE5142514F514E51533F515E5F2
:200398001633F516E51733F517C3EA95134008EAC39513FA431401D518CD85142785152836
:2003B80085162985172A8A2B22858222858323852E24852F25853026E4F52CF52DAD31AE32
:2003D80032AF338D828E838FF01208E3FC74012DF531E43EF5328F33ECFF70030208C4BF9B
:2003F800250280030208BCC201C202C203C204C205C206C207C2087535007536007CFFAAC7
:2004180031AB32AE338A828B838EF01208E3FFA3AA82AB838A318B328E33BF25078F8212FD
:20043800031880998F3874D025385026E53824C64020BCFF12E53675F00AA4FD2F24D0F51B
:200458003670C2D20280BEEC75F00AA42F24D0FC80B3BF2E07BCFFAD7C0080A98F05BD6106
:2004780000400CED248540075307DFD2008002C200BF2002806DBF2B028063BF2D02805988
:20049800BF42028063BF43028068BF4403020666BF460302067CBF480302041DBF49030238
:2004B8000666BF4A0302041DBF4C028040BF4F0302066DBF50030205FBBF5302805CBF541F
:2004D8000302041DBF5503020672BF5803020677BF5A0302041D020680D20102041DD20322
:2004F80002041DD20402041DD20602041DD20702041D30060CE53414FE8E348E0187078005
:2005180011E53424FEFE8E348E018705098706198D078F82120318020689E53424FDFE8EC4
:20053800348E01870309870509870619198B278D288E298B828D838EF0C0041208CBAD8268
:20055800AE83D004BCFF028D0420012AC3ED95365024E536C39DF536AE368E031EEB60145E
:20057800758220C006C005C004120318D004D005D00680E68E368C06852782852883852989
:20059800F01208E3FCFF602F8E041EC374808CF063F08095F050208F82C006C00512031858
:2005B800D005D006AA27AB28AC290ABA00010B8A278B288C2980C1200103020689C3ED95DB
:2005D800364003020689E536C39DF536AE368E041EEC7003020687758220C006120318D0F7
:2005F8000680EBE53424FDFC8C348C01870209870309870419198A278B288C29AC29BC80E3
:200618000040047F438014BC600040047F50800BBC400040047F4980027F588F82C0071223
:20063800031875823A120318758230120318758278120318D007BF4902800BBF5002800636
:200658008528821203548527821203548023D20575350A801C753508801775350A80127585
:200678003510800DD20880098F8212031880028E3630085CE53424FCFE8E348E01870209FB
:2006980087030987040987061919198A278B288C298E2A75270675280975298085273985A2
:2006B800283A85293B74012539FAE4353AFCAE3B8A278C288E29853982853A83853BF01272
:2006D80008E3FEFF70030203D58F8212031880CCE53570030203D575371E30062DE5341482
:2006F800FC8C348C01E7FA3395E0FBFCFE8A278B288C298E2A200566AA277B007C007E0079
:200718008A278B288C298E2A8054300721E53424FCFE8E348E0187020987030987040987FC
:20073800061919198A278B288C298E2A8030E53424FEFE8E348E01870409870619EE339555
:20075800E0FBFA8C278E288B298A2A200510AA27AB287C007E008A278B288C298E2A300502
:2007780022E52A30E71BC3E49527FAE49528FBE49529FCE4952AFE8A278B288C298E2A8075
:2007980002C205D209A9377E00752B00853582C006C00112036BD001D00620090BE52BC4AD
:2007B800FCE7FB4CF7198002A72B0EB209E52745284529452A70D289378E05E536700375DC
:2007D8003601200224200121ED04FEAC36C3EE9C5015758220C006C005C004120318D00458
:2007F800D005D0061C80E68C3630050E75822DC005120318D00515368023ED602030030E28
:2008180075822BC005120318D0051536800F30040C758220C005120318D005153620012251
:20083800AE368E041EC3ED9C502B3002047C3080027C208C82C006C005120318D005D006D4
:2008580080E0C3ED95365008E536C39DF536800775360080028E36A9378D068E051EED60BE
:2008780026B20920090A09E7C4540FFD8D2B80078705740F5DF52B852B82C006C00112039F
:200898003BD001D00680D42001030203D5AE368E051EED70030203D5758220C00612031833
:1308B800D00680EB8F821203180203D5852C82852D83224A
:0B0906003C4E4F20464C4F41543E0039
:1808CB00AA82AB831208E36003A380F8C3E5829AF582E5839BF5832268
:0D00A90075813B1208FFE58260030200A68E
:1C08E30020F71430F6148883A88220F507E6A88375830022E280F7E49322E02224
:0408FF0075820022DC
:00000001FF
