:0400000002002132A7
:01000B0032C2
:0100130032BA
:03001B0002011AC5
:0E007A00E4F508F509F50AF50BC20002001EB8
:03001E0002009D40
:20008800AF8210990280FB8F992210980280FBE599859982221201821201A41201FA745A2B
:2000A800C0E07408C0E07480C0E0120246158115811581745FC0E07408C0E07480C0E01297
:2000C8000246158115811581745AB50806E4B50902800280F3E4F508F509740A250AF50A59
:2000E800E4350BF50BAD0AAE0B7F00C005C006C007120246158115811581746DC0E074087A
:20010800C0E07480C0E012024615811581158180B722C022C0E0C0F0C082C083C007C006EA
:20012800C005C004C003C002C001C000C0D075D000AF84C007748EC0E07408C0E07480C0E7
:20014800E0120246158115811581D007758400C2CFC2CE0508E4B5080205098F84D0D0D069
:2001680000D001D002D003D004D005D006D007D083D082D0F0D0E0D02232AF8475840F75C2
:20018800FFDE75FFADD2AF43A83075E10475E20475E34075A4017580028F8422AF847584FE
:2001A8000F758C677D007E011DBDFF011EED4E70F7E58C30E7FB759701758A0075840F751E
:2001C800890475840075B71075840F438901758D03758F1F758E087D007E011DBDFF011E59
:2001E800ED4E70F7438902E58930E4FB7597028F8422AF84758400AE89741F5EF589438929
:1A02080020758DE0438E10858D8BD28E758400759850759110D2998F8422F0
:20085A001B5B324A0054696D65722074657374200A0D0054656E746873206F6620612073F5
:1E087A0065636F6E642068617320656C61707365640A0D00696E7465727275707400F9
:06005000E478FFF6D8FD84
:20002E007900E94400601B7A009008A3780175A200E493F2A308B8000205A2D9F4DAF275C9
:02004E00A2FF0F
:200056007800E84400600A790175A200E4F309D8FC7800E84400600C7900900001E4F0A3A6
:04007600D8FCD9FADF
:20022200C00D85810D120088D00D2285823285833385F034E4F52FF530F531850C3590027B
:2002420022020318C00D85810DE50D24FBFF8F35E4F52FF530F531E50D24FBF88632088607
:0D02620033088634900222120318D00D22BA
:20026F00AF82C025C026C02712027C8007C023C0248F8222158115811581052DE4B52D02BF
:20028F00052E22AF8274302FFF24C6500A74072FFF3001034307208F8202026FE582FFC4BE
:2002AF00540FF582C007120292D007740F5FF58202029285820E85280F852910852A11854E
:2002CF002B12AA2C751320EA2AFAE512235401FF8A064EFAE50F250FF50FE51033F510E5C2
:2002EF001133F511E51233F512C3EA950E4008EAC3950EFA430F01D513CD850F2885102910
:20030F0085112A85122B8A2C22858223858324852F25853026853127E4F52DF52EAD32AED7
:20032F0033AF348D828E838FF012083AFC74012DF532E43EF5338F34ECFF700302081BBF91
:20034F0025028003020813C202C203C204C205C206C207C208C2097536007537007CFFAA0F
:20036F0032AB33AE348A828B838EF012083AFFA3AA82AB838A328B338E34BF25078F82124A
:20038F00026F80998F3974D025395026E53924C64020BCFF12E53775F00AA4FD2F24D0F56B
:2003AF003770C2D20380BEEC75F00AA42F24D0FC80B3BF2E07BCFFAD7C0080A98F05BD61AE
:2003CF0000400CED248540075307DFD2018002C201BF2002806DBF2B028063BF2D02805930
:2003EF00BF42028063BF43028068BF44030205BDBF46030205D3BF4803020374BF490302E0
:20040F0005BDBF4A03020374BF4C028040BF4F030205C4BF5003020552BF5302805CBF546F
:20042F0003020374BF55030205C9BF58030205CEBF5A030203740205D7D202020374D204C5
:20044F00020374D205020374D207020374D20802037430070CE53514FE8E358E0187078050
:20046F0011E53524FEFE8E358E018705098706198D078F8212026F0205E0E53524FDFE8EBF
:20048F00358E01870309870509870619198B288D298E2A8B828D838EF0C004120822AD82B7
:2004AF00AE83D004BCFF028D0420022AC3ED95375024E537C39DF537AE378E031EEB601403
:2004CF00758220C006C005C00412026FD004D005D00680E68E378C06852882852983852AD9
:2004EF00F012083AFCFF602F8E041EC374808CF063F08095F050208F82C006C00512026F55
:20050F00D005D006AA28AB29AC2A0ABA00010B8A288B298C2A80C12002030205E0C3ED9527
:20052F003740030205E0E537C39DF537AE378E041EEC70030205DE758220C00612026FD09A
:20054F000680EBE53524FDFC8C358C01870209870309870419198A288B298C2AAC2ABC8086
:20056F000040047F438014BC600040047F50800BBC400040047F4980027F588F82C00712CD
:20058F00026F75823A12026F75823012026F75827812026FD007BF4902800BBF5002800688
:2005AF008529821202AB8528821202AB8023D20675360A801C753608801775360A8012757D
:2005CF003610800DD20980098F8212026F80028E3730095CE53524FCFE8E358E0187020949
:2005EF0087030987040987061919198A288B298C2A8E2B752898752908752A8085283A85B2
:20060F00293B852A3C7401253AFAE4353BFCAE3C8A288C298E2A853A82853B83853CF0120E
:20062F00083AFEFF700302032C8F8212026F80CCE536700302032C75381930072DE53514D1
:20064F00FC8C358C01E7FA3395E0FBFCFE8A288B298C2A8E2B200666AA287B007C007E001B
:20066F008A288B298C2A8E2B8054300821E53524FCFE8E358E01870209870309870409879F
:20068F00061919198A288B298C2A8E2B8030E53524FEFE8E358E01870409870619EE3395F9
:2006AF00E0FBFA8C288E298B2A8A2B200610AA28AB297C007E008A288B298C2A8E2B3006A0
:2006CF0022E52B30E71BC3E49528FAE49529FBE4952AFCE4952BFE8A288B298C2A8E2B8016
:2006EF0002C206D20AA9387E00752C00853682C006C0011202C2D001D006200A0BE52CC4FA
:20070F00FCE7FB4CF7198002A72C0EB20AE5284529452A452B70D289388E05E5377003757D
:20072F003701200324200221ED04FEAC37C3EE9C5015758220C006C005C00412026FD004A7
:20074F00D005D0061C80E68C3730060E75822DC00512026FD00515378023ED602030040E77
:20076F0075822BC00512026FD0051537800F30050C758220C00512026FD00515372002224B
:20078F00AE378E041EC3ED9C502B3003047C3080027C208C82C006C00512026FD005D00626
:2007AF0080E0C3ED95375008E537C39DF537800775370080028E37A9388D068E051EED6062
:2007CF0026B20A200A0A09E7C4540FFD8D2C80078705740F5DF52C852C82C006C001120245
:2007EF0092D001D00680D420020302032CAE378E051EED700302032C758220C00612026F80
:13080F00D00680EB8F8212026F02032C852D82852E832244
:0B0898003C4E4F20464C4F41543E00A8
:18082200AA82AB8312083A6003A380F8C3E5829AF582E5839BF58322BA
:0D00210075813C120856E582600302001E46
:1C083A0020F71430F6148883A88220F507E6A88375830022E280F7E49322E022CD
:040856007582002285
:00000001FF
